:02000004080AE8
:1000000000000A08DC230A080000060006000501BB
:080010000402FE0800000000DC
:040018003C1F0A0877
:10001C0009480A4908B5884205D0094A824202D0EB
:10002C00121A01F0D1FE0748074A0021121A01F0FA
:10003C00D9FE064808BD00BF0000002034230A0882
:10004C0080000020800000202502002025020020D6
:10005C0070B501F0D3FA0025054E064CA41BA4087C
:10006C00A54200D170BD56F8043B98470135F7E71F
:10007C000C230A082C230A0800F042B808B500F03B
:10008C008DF8BDE8084001F071BA00F09DBE00F09B
:10009C009BBE00F0A1BE00F09FBE0078B0FA80F0CD
:1000AC00400970470123037070470000B0B502F19E
:1000BC00080323F0070300AFADEB030D05466846BC
:1000CC00144601F081FE00230DF8043001F09EFB74
:1000DC00094901F0B8F901F099FB294601F0B3F98F
:1000EC0001F094FB054901F0AEF901F08FFB694674
:1000FC0001F0BCF9BD46B0BD501F0A086E1F0A08BE
:10010C0038B501F083FB4FF4165101F073FB194D18
:10011C00194C00226868114600F0F6FD48B14FF406
:10012C007A7001F0E3F901F071FB214601F09EF9C0
:10013C00EFE701F06BFB114901F098F9104B114AF4
:10014C0011491B6812680968104800F0B1FC50B1E5
:10015C0001F05CFB0E4901F089F9BDE838400D490E
:10016C000A4800F004BB01F051FBBDE838400A49D5
:10017C0001F07CB9600100207A1F0A08901F0A0860
:10018C00040000201000002000000020800000204F
:10019C00A21F0A08BB1F0A08C61F0A0808B5054893
:1001AC0000F04DF920B1BDE80840024800F09DB9BF
:1001BC0008BD00BF80000020002307B5054A00934E
:1001CC001288054B0549064800F050F803B05DF85D
:1001DC0004FB00BF08000020B9000A080A00002038
:1001EC008000002091F85C3010B50446016013B11A
:1001FC00886D00F085FC204610BD10B503680446E0
:10020C0093F85C2012B1986D00F082FC204610BD72
:10021C00F8B51F469DF8243004460D46164623B10A
:10022C0001235830037100F063FC089B2363002307
:10023C00636306B1A66425B1294604F1380001F0C8
:10024C00CBF8069BE0692365079BA4F84C70FF2B49
:10025C00B8BFFF23A4F8543008B1FFF71CFFB4F863
:10026C005400FFF714FFE061F8BD00002DE9FF41D9
:10027C0004460025984617460E4601F009F80D492C
:10028C00E56104F1380001F094F89DF82830FF2264
:10029C00CDE902830F232046CDE9003229463B46A7
:1002AC003246A56484F85C50FFF7B2FF204604B0D8
:1002BC00BDE8F0816D1F0A0810B50446204600F019
:1002CC00FDFE0028FAD0204600F03BFEC0B210BD67
:1002DC002DE9F0470546C46989460127FFF7ECFF75
:1002EC004FF0000820703C46EB6993F800A00AF030
:1002FC00F00A2846FFF7E0FF2646EB6901349855D3
:10030C0000F07F0303FB07880306A4B21FFA88F8EA
:10031C004FEAC717EDD4631EBAF1300F89F80030DD
:10032C0024D12846EF69FFF7C7FF38552846EF69F7
:10033C00FFF7C2FFF41C0236B6B2B8550226A4B2BF
:10034C00B6B2B1462746C14512D22846FFF7B4FFD4
:10035C00B5F8543009F10109BB4288BFEB691FFAAB
:10036C0089F988BFD8550137BFB2ECE70026E7E71B
:10037C00A8EB0600B0452CBF06460026B5F8540085
:10038C003444A4B2A0422CBF20460020BDE8F08724
:10039C00F7B58C461E461D4607460023AE4605F0B3
:1003AC007F01BEF17F0F02A888BF41F080015C1C69
:1003BC00BEF17F0F03444FEAD515E4B203F8041CD9
:1003CC0010D8C4F10403D11802F803C0C4F105031A
:1003DC00134401A80532934206D010F8015B03F8D0
:1003EC00015BF8E72346D9E7721C2244384600F03B
:1003FC002AFD054600F074FB013478623444A8B23F
:10040C00231A5842584103B0F0BD0233F0B50446EC
:10041C0098B20023CD5C4DB1B4F854605F1C864299
:10042C0004D9461C15543B46B0B2F3E799B2441AB2
:10043C002244091202F8021C02F8013CF0BD38B546
:10044C00044600F0CCFE002814BF0125002502D183
:10045C00204600F06DFE284638BD73B504460E46A6
:10046C00FFF7EDFF0546C8B1214601A8FFF7BAFE1C
:10047C006222E36920461A700222E3695A70E3692A
:10048C0032129A70E3690422DE70E16900F0DBFC41
:10049C00051E01A818BF0125FFF7AFFE284602B0C4
:1004AC0070BD73B504460E46FFF7C9FF0546C8B1CB
:1004BC00214601A8FFF796FE7222E36920461A70C6
:1004CC000222E3695A70E36932129A70E3690422DA
:1004DC00DE70E16900F0B7FC051E01A818BF01250C
:1004EC00FFF78BFE284602B070BD2DE9F04F87B0A8
:1004FC0000AF0446FFF7A3FF8146F8B1214607F190
:10050C001400FFF76FFE00F0EBFA4FF47A73226DD4
:10051C0006465343A26A821A9A4203D8626A821A26
:10052C0093421FD294F82C306BB1204600F000FEA1
:10053C004FF0000907F11400FFF75FFE48461C3727
:10054C00BD46BDE8F08FC021E26920461170E2691A
:10055C005370E169022200F076FC0123C4E90966BC
:10056C0084F82C30204600F0A9FD0028E2D020466B
:10057C0007F11301FFF7ACFE83460028DAD0E369DC
:10058C00A662197801F0F002302A7DD1D4F830A09F
:10059C00BAF1000FCED097F813C0C7F804D003EB14
:1005AC000C025578917801EB05218DB2694605F165
:1005BC000802D208A1EBC202954668460CF1030270
:1005CC00FA6003EB020E0DEB0502C7F808D03A6097
:1005DC003A68B9688A4206D00A461EF8018B02F8BE
:1005EC00018BBA60F4E70022425593F80080F96859
:1005FC0008F00608ABEB0C02033AB8F1020FA2EBC1
:10060C000502294424D113F801E0194491F801B0F2
:10061C000CF105012944023A19440BEB0E2BD0477F
:10062C004022E3691FFA8BFB1A70E36983F801809F
:10063C00E3694FEA2B229A70E369042283F803B032
:10064C002046E16900F0FFFB6662D7F804D071E741
:10065C00B8F1040F15D113F801E0194491F801B069
:10066C000CF105012944023A19440BEB0E2BD0472F
:10067C005022E3691FFA8BFB1A700222E3695A704D
:10068C00D6E71944D047E0E7502A08D19A78D978B0
:10069C00204601EB022189B2FFF7DFFE4AE7402A30
:1006AC0012D1626B002A3FF445AFBBF1040F7FF40B
:1006BC0041AF11F0060F7FF43DAF9978D87800EB7D
:1006CC00012080B2904735E7602A08D19A78D97812
:1006DC00204601EB022189B2FFF7E3FE2AE7702ADC
:1006EC00DFD0902A3FF426AFC02A0AD1D0221A704C
:1006FC000022E36920465A70E169022200F0A3FB54
:10070C0018E7D02A04BF002384F82C3012E7F7B581
:10071C0004460F461646FFF792FE054610B32146D7
:10072C0001A8FFF75FFD238C01339BB2EBB123844F
:10073C00238CE2691B125371E369228C39469A713E
:10074C00E26907232046FFF760FEE36982211E540D
:10075C00043883B2E2692046FFF71AFE054601A869
:10076C00FFF74BFD284603B0F0BD0123DFE7002265
:10077C00FFF7CDBF38B5054642B903689B6898476B
:10078C000446284600F066FE204438BDD2B200F084
:10079C0077FEF5E72DE9F04F93B01E469DF88030BB
:1007AC00044689461746DDF870800393FFF747FE31
:1007BC000546002840F06481214605A8FFF712FD8C
:1007CC00A16C002940F014812B462046B4F84C2033
:1007DC00A16B00F075FD834628BBA06C8378427832
:1007EC000178C078009006A800F092FFA84B0DF19C
:1007FC00340C0DF11C0E0C93BEE80F00ACE80F008E
:10080C00DEF8003020468CF80030B4F84C205B4603
:10081C000CA900F0E3FB002800F0F58000F0F6FFD7
:10082C009C4900F023FE00F0F1FFA16C8246B1FA66
:10083C0081F10A22490900F023FE504600F00AFE1D
:10084C0000F0E4FFA36C0A221978FFF793FF00F085
:10085C00DDFFA36C0A225978FFF78CFF00F0D6FF5E
:10086C00A36C0A229978FFF785FF00F0CFFFA36CE9
:10087C000A22D978FFF77EFF00F0C8FFA16B00F0C9
:10088C00F5FD00F0C3FFA16B00F0F0FD00F0BEFF22
:10089C0082460A22B4F84C1000F0F2FD504600F0EB
:1008AC00D9FD00F0B3FF7C4900F0E0FD00F0AEFF95
:1008BC00BBF1000F824680F2AA802D2100F0C7FD0B
:1008CC00CBF100010A22504600F0DAFD504600F050
:1008DC00C1FDBBF1000F00F0CD80012323849DF8F6
:1008EC008430E269042B40F094806C4B1868998832
:1008FC009B79ADF834108DF836300C90C2F80500A9
:10090C009DF83630BDF83410D3720C23A2F80910C0
:10091C00B8F1000F00F092809DF878009DF87420DB
:10092C00400140EAC20040F00600C0B2039A0AB986
:10093C0000F0FD0027B1002E40F0828040F08000D6
:10094C00E269D054226DE169581C12120A54E16913
:10095C00206D9A1C8854033349462046E269FFF700
:10096C0054FD0346B8F1000F0BD04146E269204616
:10097C00FFF74BFDE26903461F992046FFF745FD43
:10098C00034667B139462046E269FFF73EFD034650
:10099C002EB131462046E269FFF737FD0346053B91
:1009AC001021E2699BB22046FFF7F2FC00F098F8A8
:1009BC004FF47A76C4E90900204600F07FFB00284A
:1009CC0041D100F08DF8A36AC01A236D734398428D
:1009DC00F2D9204600F0ACFB00F018FF304900F0D3
:1009EC0045FD05A8FFF709FC284613B0BDE8F08FBC
:1009FC000CA800F0A3FE2B462046B4F84C200CA902
:100A0C0000F0ECFAE7E600F001FF264909E7594649
:100A1C0058E7254B0DF1300C186859681B7AACE877
:100A2C0003008CF800300CAB03CBC2F80500C2F805
:100A3C0009109CF8003053730E2369E7022075E708
:100A4C0040F0C0007CE720460CA9FFF741FC0428CD
:100A5C0010D1E369DD7835B900F042F884F82C50F8
:100A6C00A0620125BDE700F0D1FEE3690A22D97826
:100A7C00FFF780FE204600F05BFB05A8FFF7BDFBEF
:100A8C0000F0C4FE094900F0F1FC0025ACE700BF02
:100A9C0034210A080C200A082B200A086E200A08A8
:100AAC0039200A0814200A0875200A0857200A0859
:100ABC0010B54FF0040C012486B0CDE9044C002491
:100ACC00CDE90244CDE90044FFF764FE06B010BD49
:100ADC0008B5024B1B685B68019308BD9C010608B6
:100AEC0008B5024B1B685B69019308BD9C010608A5
:100AFC0008B5024B1B681B6B019308BDD00106089F
:100B0C0008B5024B1B689B6B019308BDD00106080E
:100B1C0008B5024B1B681B6C019308BDD00106087D
:100B2C0008B5024B1B689B69019308BDC4010608FC
:100B3C0008B5024B1B685B6A019308BDC40106082B
:100B4C0008B5024B1B689B6A019308BDC4010608DB
:100B5C0008B5024B1B68DB6A019308BDC40106088B
:100B6C0008B5024B1B681B6B019308BDC40106083A
:100B7C0008B5024B1B685B6B019308BDC4010608EA
:100B8C0008B5024B1B681B6C019308BDC401060819
:100B9C0008B5024B1B681B68019308BDBC01060815
:100BAC0008B5024B1B685B68019308BDBC010608C5
:100BBC0008B5024B1B689B68019308BDBC01060875
:100BCC0008B5024B1B68DB68019308BDBC01060825
:100BDC0008B5024B1B681B69019308BDBC010608D4
:100BEC0008B5024B1B681B6A019308BDBC010608C3
:100BFC0008B5024B1B681B6B019308BDBC010608B2
:100C0C0008B5024B1B685B6C019308BDBC01060860
:100C1C0008B5024B1B681B68019308BDD801060878
:100C2C0008B5024B1B685B68019308BDD801060828
:100C3C0008B5024B1B681B69019308BDD801060857
:100C4C0008B5024B1B685B69019308BDD801060807
:100C5C0008B5024B1B689B69019308BDD8010608B7
:100C6C0008B5024B1B68DB69019308BDD801060867
:100C7C0008B5024B1B681B6A019308BDD801060816
:100C8C0008B5024B1B685B6C019308BDC0010608DC
:100C9C0008B5024B1B689B6C019308BDC00106088C
:100CAC0008B5024B1B681B6D019308BDA801020817
:100CBC0008B5024B1B685B68019308BDA4010608CC
:100CCC0008B5024B1B685B69019308BDA4010608BB
:100CDC0008B5034B1B68D3F89030019308BD000096
:100CEC00A401060808B5034B1B68D3F89C3001938C
:100CFC0008BD0000A401060808B5024B1B685B6820
:100D0C00019308BDC801060808B5024B1B689B6817
:100D1C00019308BDC801060808B5024B1B68DB68C7
:100D2C00019308BDC801060808B5024B1B681B6976
:100D3C00019308BDC801060808B5024B1B685B6926
:100D4C00019308BDC801060808B5024B1B689B69D6
:100D5C00019308BDC801060808B5024B1B68DB6986
:100D6C00019308BDC801060808B5024B1B681B6A35
:100D7C00019308BDC801060808B5024B1B681B6B24
:100D8C00019308BDC801060808B5024B1B685B6BD4
:100D9C00019308BDC801060808B5024B1B681B6C03
:100DAC00019308BDC801060808B5024B1B685B6CB3
:100DBC00019308BDC801060808B5024B1B68DB6B24
:100DCC00019308BDCC01060808B5024B1B681B68D3
:100DDC00019308BDA001060808B5024B1B685B68AF
:100DEC00019308BDA001060808B5024B1B689B685F
:100DFC00019308BDA001060808B5024B1B685B6C8B
:100E0C00019308BDA001060802220020044B1A60C1
:100E1C00044B054A1860988098719A60FFF748BF98
:100E2C00EC000020E00000200000FFFF13B5036879
:100E3C008DF80710DC6B012247F230530DF10701DE
:100E4C00A04702B010BD10B40368DC6B47F23053FE
:100E5C00A44610BC604713B5134602688DF8071002
:100E6C00D46B0DF107010122A04702B010BD7047F1
:100E7C007047000010B50446064B0846994204F131
:100E8C000C0404D000F086FE002808BF0024204685
:100E9C0010BD00BFB8200A0810B50446AC2100F004
:100EAC0077FE204610BDFFF7F4B8000038B50B4BA9
:100EBC008469054603607CB16368013B63605BB980
:100ECC00236820469B689847A368013BA3601BB925
:100EDC0023682046DB689847284638BDC8200A0896
:100EEC0010B50446FFF7E2FF20461C2100F050FE2F
:100EFC00204610BD70B5044606464D69044B8C3532
:100F0C0044F8043B0FCD0FC42B683046237070BDE2
:100F1C0034210A0810B543690446B3F88620B3F8A7
:100F2C0084309A4205D06369B3F88420134418794D
:100F3C0010BD03681B6998470028F4D14FF0FF30AF
:100F4C00F6E710B543690446B3F88620B3F884304D
:100F5C009A4208D06369B3F88420511CA3F884101A
:100F6C001344187910BD03681B6998470028F1D108
:100F7C004FF0FF30F6E7F8B543691746B3F8862013
:100F8C00B3F8843005469A420E4616D0696930464D
:100F9C00B1F88430B1F88640E41ABC4228BF3C4614
:100FAC0004332246194400F00FFF6A69B2F884300A
:100FBC002344A2F884302046F8BD03681B69984787
:100FCC000028E3D14FF0FF34F5E700234269A2F883
:100FDC0084304269A2F88630704700002DE9F04356
:100FEC001F4603688BB0DB6A05460C4616469847CD
:100FFC00384600F0A9FD0368DB689847002854D0F8
:10100C0033460622012102200097D5F81480FFF701
:10101C00CFFD2023C8F800004FF00008CDE90238BE
:10102C006B6901201B6823490193234B02AA00938F
:10103C004346FFF735FE6B691868FFF7B1FD0028D2
:10104C0033D02846FFF7C1FF0223ADF80830E3790F
:10105C0076BA8DF80C30A3794FF4FA508DF80D3028
:10106C006379ADF80A608DF80E3014F8043F8DF8F2
:10107C000F30FFF705FE6B6906461022186802A9AF
:10108C00FFF79EFD81463046FFF7FAFD0FCC6E69E7
:10109C008C360FC6236833702F61B9F1000F07D05F
:1010AC002B682846DB6A984740460BB0BDE8F083B6
:1010BC000120FAE77E200A0885200A0838B5426923
:1010CC000446B2F886302BB1B2F884209A4201D192
:1010DC00FFF77BFF206900F037FD0368DB6898475A
:1010EC00F8B163691868FFF75BFDD0B16069B0F8BF
:1010FC0086107F2915D8051DC1F1800200230068D8
:10110C002944FFF765FD00280BDD6369B3F88620E1
:10111C000AB9A3F884206369B3F886201044A3F8B5
:10112C0086006369B3F88600B3F88430C01A38BD02
:10113C0038B5436904461868FFF732FD18B1636986
:10114C001868FFF74DFD6569FFF752FD286060696F
:10115C00112200218C3000F045FE2046BDE83840BD
:10116C00FFF733BF10B5436904461868FFF718FD45
:10117C0008B9002010BD206900F0E6FC0368DB68AC
:10118C0098470028F5D063691868FFF701FDB0FA9D
:10119C0080F04009EEE708B5FFF7E4FF003818BF10
:1011AC00012008BD2DE9F3410027476004460D4698
:1011BC0016469846FFF7D6FF70B1CDE900876069F7
:1011CC003B46324629460068FFF71AFD002800DA34
:1011DC00606002B0BDE8F0814FF0FF30F8E770B509
:1011EC000546FFF7BFFFE8B96B69B3F88610B3F893
:1011FC008420914216D11868FFF7D2FC08B9002060
:10120C0070BD6B691868FFF7C3FC01280446F6D162
:10121C002B6828461B69984730B92B682846DB6A2F
:10122C009847ECE70120EBE72046E9E7002310B5EF
:10123C0004460160C0F88430883000F033FA204650
:10124C0010BD0000F8B54FF47A720023C0E90132EA
:10125C000D4A0361026043610446AC200E46FEF762
:10126C0014FF051E05F10C0708D00123C5E9013355
:10127C00064B314638462B60FFF7D8FF2046C4E9B1
:10128C000575FFF7A2FEF8BDC8200A08A4200A08BD
:10129C0010B50446FFF7ACFC01462046FFF7D2FF21
:1012AC00204610BD10B504460068FFF779FC10B15C
:1012BC002068FFF795FC204610BD0C30FFF7F2BFFD
:1012CC002DE9F0431F4603688FB0DB6A06460D46D6
:1012DC0090469847134800F0E2FBF0B102A800F0EA
:1012EC00E1F9284600F0B4FD002481B23B462846C3
:1012FC00009403AAFFF7CCFC90B9336809ADD3F87E
:10130C002090094B03AC08930FCC0FC523684246C1
:10131C002B7030463B4608A9C8470FB0BDE8F08398
:10132C002046FAE76801002034210A0810B504466B
:10133C00006808B1FFF750FD0023C4E901332360B6
:10134C0010BD38B504460D4600680131FFF74CFD61
:10135C0010B1C4E90005012038BD10B5036804467E
:10136C0023B143688B4201D3012010BD2046FFF707
:10137C00E8FF0028F9D0A368002BF5D12268137080
:10138C00F2E770B50E46114604461546FFF7E5FF29
:10139C0020B92046FFF7CAFF204670BD2A463146C9
:1013AC002068A56000F010FD00212268A368D154CC
:1013BC00F2E738B5002304460D46C0E900338360DC
:1013CC00037339B1084600F043FD29460246204616
:1013DC00FFF7D7FF204638BD38B505460C4649B156
:1013EC00084600F035FD214602462846FFF7C9FFA6
:1013FC00284638BDFFF79AFFFAE7F8B506460D46C2
:10140C0000248F18BD420CD0336830469B6815F809
:10141C00011B9847031E01DB1C44F3E7002C08BF9B
:10142C001C462046F8BD70B505460C46084649B129
:10143C0000F00EFD2B68024621462846BDE87040A0
:10144C00DB68184770BD08B5FFF7EDFF08BD0368F2
:10145C009B68184738B50D210546FFF7F8FF0A21A0
:10146C0004462846FFF7F3FF204438BD38B505463F
:10147C00FFF7D9FF04462846FFF7ECFF204438BDA0
:10148C000023012A98BF0A2230B58BB00C468DF888
:10149C00243009A92546B4FBF2F404FB1253DBB249
:1014AC00092B94BF30333733DBB2AA4201F8013D2C
:1014BC00F0D9FFF7B8FF0BB030BD002340681A46D7
:1014CC001946FFF739BC0000014B024A1A607047FD
:1014DC00F00000200C210A08024B1A68024B1A601B
:1014EC00704700BF14000020F40000200021FFF71B
:1014FC00E7BB00000022014B9A607047F800002007
:10150C00014B1860704700BF1800002008B5134B42
:10151C0043B100F07BF903681B699847002801DD93
:10152C00AFF300800E4B43B100F012FA03681B6955
:10153C009847002801DDAFF300800A4B0BB1AFF3E5
:10154C000080094B43B100F08DF903681B69984783
:10155C00002801DDAFF3008008BD00BF00000000D3
:10156C0000000000000000000000000008B5FFF7BC
:10157C00CDFFFFF7B5FA014B186008BD70010020D4
:10158C000548064A08B5121A054900F01DFC054B22
:10159C00054A1A6008BD00BF0040024004400240EA
:1015AC0030230A08004002401E1C279A002307B56E
:1015BC001A466FF077010093FFF794FB03B05DF8C8
:1015CC0004FB000007B543880A2B08D0502B0BD125
:1015DC00094B1B684BB103B05DF804EB1847FFF7E0
:1015EC00E5FF03B05DF804FB00231A466FF07701AA
:1015FC000093FFF777FBF4E70C010020002110B5F6
:10160C001148FFF7F9FB114B1A68114B9A420CBFAA
:10161C00012200220F4B1A7001D0FFF7B1FFFFF728
:10162C0057FA044600F0E6FB0B4B13B12046AFF320
:10163C00008000210848FFF7BFFBBDE810400021E7
:10164C000648FFF745BB00BF0D150A0800400240D5
:10165C001E1C279A0801002000000000D1150A0862
:10166C00704710B50446182100F092FA204610BDC0
:10167C00F8B50E46002400F10807051D17F8011DEA
:10168C000A223046FFF7FCFEAF42044401D120464B
:10169C00F8BD002CF2D02E213046FFF7D8FE0444C2
:1016AC00ECE7000010B50446044B1122002140F871
:1016BC00043B00F097FB204610BD00BF34210A0804
:1016CC000346074A10B543F8042B01F1100251F8F8
:1016DC00044B914243F8044BF9D10A781A7010BDAF
:1016EC0034210A08024AC0E900210422027570471D
:1016FC0034210A0810B59DF8084044EA0324042359
:10170C0044EA024444EA01644460037510BD0000DD
:10171C0037B5044D05609DF818500095FFF7EAFFAA
:10172C0003B030BD34210A0813B5CB7800938B7805
:10173C004A780978FFF7DEFF02B010BD10B50446F9
:10174C00024B0360FFF7F0FF204610BD34210A085E
:10175C00417470477047704708B50021007CFFF753
:10176C0077FA40EAE07008BD08B50121007CFFF76C
:10177C006FFA40EAE07008BD08B5007CFFF760FA2C
:10178C0020EAE07008BD08B5007CFFF751FA20EAAA
:10179C00E07008BD38B50446007C0D46FFF750FAE2
:1017AC00002801DC607C28B12946207CFFF758FA20
:1017BC0020EAE07038BD007CFFF75ABA10B5044639
:1017CC00142100F0E5F9204610BD704710B54FF418
:1017DC007A73044608460021C4E90113044B2074B3
:1017EC002360012311466374FFF712FA204610BDE3
:1017FC0048210A080022007CFFF712BA10B50446F3
:10180C001422002100F0EEFA204610BD30B50E4D2A
:10181C0087B001A8FFF7F2FF2978BFF35B8F11F0B7
:10182C0001040ED12846FEF738FC50B1214601AA1E
:10183C000648FFF7CBFF2846FEF734FC044800F0BF
:10184C00BDFA024807B030BD10010020180100207D
:10185C0061170A0810B504461422002100F0C2FAE0
:10186C00204610BD10B50E4C86B001A8FFF7F2FF54
:10187C002378BFF35B8FDB070ED42046FEF70DFCFD
:10188C0050B1012101AA0748FFF7A0FF2046FEF73F
:10189C0009FC054800F092FA024806B010BD00BFE2
:1018AC00140100202C010020D7170A08704741743E
:1018BC007047704708B5007CFFF762F920EAE070CA
:1018CC0008BD08B5007CFFF73BF920EAE07008BDC5
:1018DC0008B5007CFFF744F940EAE07008BD08B594
:1018EC00007CFFF735F940EAE07008BD007CFFF79B
:1018FC003FB970B5467C04460D462EB12946207C76
:10190C00BDE87040FFF714B9007CFFF739F90028E7
:10191C00F4DC304670BD10B50446142100F038F9E3
:10192C00204610BD4FF0000C10B504460846114679
:10193C004FF47A72C4E901C2044A20742260012275
:10194C0062741A46FFF7ECF8204610BD78210A089D
:10195C00F8B5194C26684EB98420FEF796FB05465F
:10196C0018B18422314600F03DFA2560134D2F68E2
:10197C004FB98420FEF789FB064618B184223946FC
:10198C0000F030FA2E600E4F3978BFF35B8F11F0F8
:10199C0001060FD13846FEF780FB58B131462B6853
:1019AC0022680848FFF7BEFF3846FEF77BFB064867
:1019BC0000F004FA0348F8BD44010020480100205F
:1019CC00400100204C010020BF180A08002240688A
:1019DC001146FFF7A9B9F0B5154689B011220E468C
:1019EC000446002103A800F0FDF9284600F030FA67
:1019FC00002781B273682846009703AAFFF748F9BD
:101A0C0030B139462046FFF76DFE204609B0F0BDD7
:101A1C00204603A9FFF754FEF7E700224068114661
:101A2C00FFF7A2B9002240681146FFF7ADB90022BA
:101A3C004068FFF7A1B90022406881F00101FFF76F
:101A4C008BB9002340681A461946FFF77DB900226E
:101A5C0040681146FFF758B9002202214068FFF791
:101A6C005BB9002340681A46FFF746B90422024BC3
:101A7C005A60024A1A60704760010020A8210A08C7
:101A8C00002340681A46FFF737B90022022140684C
:101A9C00FFF742B9002240681146FFF735B9002222
:101AAC0040681146FFF740B9002340681A461946B2
:101ABC00FFF742B9002340681A461946FFF744B9AC
:101ACC0000214068FFF768B900214068FFF76CB946
:101ADC000022406881F00101FFF73EB90022406806
:101AEC00FFF74AB9002240681146FFF74DB90022B2
:101AFC0040681146FFF738B970B515468EB00446EC
:101B0C0008A8FFF7CFFD1122002103A800F06AF905
:101B1C000026284600F09CF90A4B009681B25B68BF
:101B2C00284603AAFFF7B4F830B131462046FFF738
:101B3C00D9FD20460EB070BD204603A9FFF7C0FDAD
:101B4C00F7E700BF60010020034A044B042814BFD0
:101B5C0010461846704700BF680100206001002045
:101B6C00024B034A1A6000225A6070476801002039
:101B7C00E4210A08002307B51A46194600930348C6
:101B8C00FFF7C6FD03B05DF804FB00BF7401002035
:101B9C00FEF77FBA014900F0FBB800BF30220A08FB
:101BAC007FB500241023CDE90234036815469E69E5
:101BBC0012686B4600948DF80440B0479DF80430D1
:101BCC0003F00603062B09BF01202046009B2B6067
:101BDC0004B070BD0098904214BF012006207047DD
:101BEC0010B50446024B036000F0CFF8204610BD40
:101BFC0070220A0810B50446FFF7F2FF20460821B0
:101C0C00FFF7C6FF204610BD2DE9F041DDF8188026
:101C1C001F46DDE9083498450646154607D1079955
:101C2C0000F0B6F818B165710020BDE8F0813946B6
:101C3C00304600F0ADF80028F6D00123C4F800803F
:101C4C002571A371F0E738B515461C4600F0A0F8D5
:101C5C0020B10823E36006232560237138BD2DE9EC
:101C6C00F04105460C4616461F4600F091F848B95F
:101C7C00032F07D82368324629462046BDE8F04199
:101C8C005B691847BDE8F08110B50446024B036050
:101C9C00FFF7A6FF204610BDD0220A0810B5044657
:101CAC00FFF7F2FF20460C21FFF772FF204610BD14
:101CBC002DE9F041DDF81880064690450F46154693
:101CCC001C460BD0B0682A460368CDF818801E6AF3
:101CDC0039462346B446BDE8F0416047194600F04A
:101CEC0057F80028EED00620BDE8F0812DE9F14F21
:101CFC000D46DDE90A4BDDE90CA61946814617466F
:101D0C00984600F045F890B1002D3460377109DB2E
:101D1C002C44A2450CBF06240124B471002001B050
:101D2C00BDE8F08F0235F9D10123B371F6E75445C4
:101D3C0006D15946484600F02BF808B17771EDE70B
:101D4C00D9F808003A460368CDE90CA6CDE90A4B50
:101D5C00DC6929464346A44601B0BDE8F04F604714
:101D6C002DE9F04107460C4615461E46FFF76BFF62
:101D7C0048B9B8682A46036821469F693346BC4671
:101D8C00BDE8F0416047BDE8F08170470020704726
:101D9C00814208B50ED0406803782A2B0CD04968D4
:101DAC000B782A2B08BF013100F048F8B0FA80F00C
:101DBC00400908BD0120FCE70020FAE7002301469A
:101DCC001A46184600F04CB80A44914200F1FF3311
:101DDC0000D1704710B511F8014B914203F8014F37
:101DEC00F9D110BD03460244934200D1704703F869
:101DFC00011BF9E738B50D4B04461D68AB6B7BB97D
:101E0C001820FEF7E1FF0A4A0A4BA863C0E9002339
:101E1C00094B012283600B2383810023C0E9042337
:101E2C000022AB6B1C615A6138BD00BF180000204A
:101E3C000E33CDAB34126DE6ECDE050010F8012B41
:101E4C0011F8013B012A28BF9A42F7D0D01A7047EB
:101E5C00034613F8012B002AFBD1181A01387047DE
:101E6C002DE9F843DFF8BC800646D8F800001F4681
:101E7C000D46914600F058F8264B1C6834B9264C98
:101E8C001C60264B13B11B68C4F8883063681F2B89
:101E9C0007DDD8F8000000F049F84FF0FF30BDE83E
:101EAC00F8835EB3D4F8880088B91D4B23B9D8F8F1
:101EBC00000000F03AF8F0E74FF48470FEF784FF6E
:101ECC000028F4D00023C0E94033C4F88800012274
:101EDC006368022E40F8239002FA03F200EB8301B0
:101EEC00D0F8003143EA0203C0F80031C1F8807029
:101EFC0002BFD0F804311A43C0F804216368D8F843
:101F0C0000005A1C0233626044F8235000F00EF8B3
:101F1C000020C4E7180200208C0100200000000003
:101F2C00D50D0A087C0000207047704770470000F0
:101F3C001D000A085D000A0885000A0889000A08C5
:101F4C000000000052656365697665642061206D50
:101F5C00657373616765206F6E20746F7069633A87
:101F6C0020002E204D6573736167653A2000436F26
:101F7C006E6E656374696E6720746F20576946696D
:101F8C002E2E2E00436F6E6E656374656420746F25
:101F9C00205769466900436F6E6E656374656420F3
:101FAC00746F204D5154542042726F6B65720074E3
:101FBC006573742F746F706963004661696C656436
:101FCC0020746F20636F6E6E65637420746F204D88
:101FDC005154542042726F6B65720070686F746F4D
:101FEC006E36305F697169796A76616A610076690B
:101FFC006C6C614E6F766100656365323433310011
:10200C0053756363657373004661696C6564207511
:10201C0073696E6720495041646472657373004341
:10202C006F6E6E656374696E672E2E2E004572722C
:10203C006F7220696E20215F636C69656E742E610E
:10204C007661696C61626C652829004572726F72E9
:10205C0020696E206973436F6E6E656374656428C6
:10206C00290000044D5154540400064D5149736429
:10207C007003776972696E6700544350436C6965ED
:10208C006E7420736F636B65743D257800000000DF
:10209C0000000000000000007D0E0A08A50E0A08D2
:1020AC00C7120A08B30E0A08810E0A0800000000C5
:1020BC00000000000000000000000000B90E0A083B
:1020CC00ED0E0A08390E0A08530E0A08C9100A0840
:1020DC004F0F0A08210F0A087B0E0A08E90F0A089D
:1020EC00CD120A08830F0A083D110A08EB110A08E1
:1020FC00A3110A08630E0A08B1110A08010F0A0895
:10210C006170700025592D256D2D25645425483A94
:10211C00254D3A2553257A0061736374696D65000A
:10212C0000000000000000007D160A086D160A0869
:10213C006F160A08000000000000000063170A0870
:10214C00C9170A08A1170A0807140A0893170A08DE
:10215C0065170A0875170A08C3170A0885170A08AD
:10216C005D170A080000000000000000B9180A08FA
:10217C0023190A08FF180A0807140A08CF180A08B6
:10218C00EB180A08DD180A08F9180A08BB180A081F
:10219C00C1180A0800000000000000006F1A0A08AD
:1021AC00651A0A085B1A0A08D9190A08C7140A081A
:1021BC004F1A0A08CD1A0A08D51A0A08431A0A082F
:1021CC003B1A0A08311A0A08271A0A08E3190A08DE
:1021DC0000000000000000008D1A0A08971A0A0877
:1021EC00A11A0A08AB1A0A08B51A0A08C11A0A0871
:1021FC00CD1A0A08D51A0A08DD1A0A08E91A0A08BB
:10220C00F11A0A08FB1A0A08051B0A08537431391B
:10221C005F53705F6D616B655F7368617265645F5E
:10222C007461670070220A0818220A08D0220A0872
:10223C0044220A08F4220A084E31305F5F63787832
:10224C00616269763131375F5F636C6173735F74A0
:10225C007970655F696E666F4500000000000000D4
:10226C0038220A08ED1B0A08011C0A08991D0A08E5
:10227C00991D0A086B1C0A08AD1B0A08531C0A0896
:10228C00151C0A08E11B0A08D0220A08A0220A0819
:10229C0038220A084E31305F5F6378786162697664
:1022AC003132305F5F73695F636C6173735F747934
:1022BC0070655F696E666F450000000000000000ED
:1022CC0094220A08951C0A08A91C0A08991D0A08D8
:1022DC00991D0A086B1C0A08AD1B0A086D1D0A081B
:1022EC00F91C0A08BD1C0A0870220A08FC220A08FC
:1022FC00537439747970655F696E666F0000000005
:10230C00C5010A08150E0A08D5140A08E5140A08AE
:10231C0001150A08791A0A086D1B0A08811B0A089C
:04232C0000000000AD
:0423300000000000A9
:10233400E71F0A08FA1F0A085B0798683DDA0000DD
:1023440004200A0824210A081C00002000000000C0
:102354000000000000000000000000000000000079
:102364000000000000000000000000000000000069
:102374000000000000000000000000000000000059
:102384000000000000000000000000000000000049
:102394000000000000000000000000000000000039
:1023A4000000000000000000000000001D020020EA
:1023B400FFFFFFFF00000102030405060708090AE6
:1023C4000B0C0D0E0F101112131415161718191AE1
:0823D4001B1C1D1E1F20280028
:0423DC0078563412E9
:04000005080A001CC9
:00000001FF
