:02000004080AE8
:1000000000000A080C220A0800000600060005018C
:080010000402FE0800000000DC
:04001800C81D0A08ED
:10001C0009480A4908B5884205D0094A824202D0EB
:10002C00121A01F017FE0748074A0021121A01F0B4
:10003C001FFE064808BD00BF0000002064210A080E
:10004C0080000020800000202502002025020020D6
:10005C0070B501F019FA0025054E064CA41BA40836
:10006C00A54200D170BD56F8043B98470135F7E71F
:10007C0034210A0854210A0800F042B808B500F0EF
:10008C008DF8BDE8084001F0B7B900F0E3BD00F011
:10009C00E1BD00F0E7BD00F0E5BD0078B0FA80F0FE
:1000AC00400970470123037070470000B0B502F19E
:1000BC00080323F0070300AFADEB030D05466846BC
:1000CC00144601F0C7FD00230DF8043001F0E4FAEA
:1000DC00094901F0FEF801F0DFFA294601F0F9F8C0
:1000EC0001F0DAFA054901F0F4F801F0D5FA6946A5
:1000FC0001F002F9BD46B0BDDC1D0A08FA1D0A0864
:10010C0038B501F0C9FA4FF4165101F0B9FA194D8E
:10011C00194C00226868114600F03CFD48B14FF4C0
:10012C007A7001F029F901F0B7FA214601F0E4F8F0
:10013C00EFE701F0B1FA114901F0DEF8104B114A6A
:10014C0011491B6812680968104800F069FA50B12F
:10015C0001F0A2FA0E4901F0CFF8BDE838400D4984
:10016C000A4800F0F7BB01F097FABDE838400A499D
:10017C0001F0C2B860010020061E0A081C1E0A0805
:10018C00040000201000002000000020800000204F
:10019C002E1E0A08471E0A08521E0A0808B50548F2
:1001AC0000F04DF920B1BDE80840024800F090BACB
:1001BC0008BD00BF80000020002307B5054A00934E
:1001CC001288054B0549064800F050F803B05DF85D
:1001DC0004FB00BF08000020B9000A080A00002038
:1001EC008000002091F85C3010B50446016013B11A
:1001FC00886D00F0CBFB204610BD10B5036804469B
:10020C0093F85C2012B1986D00F0C8FB204610BD2D
:10021C00F8B51F469DF8243004460D46164623B10A
:10022C0001235830037100F0A9FB089B23630023C2
:10023C00636306B1A66425B1294604F1380001F0C8
:10024C0011F8069BE0692365079BA4F84C70FF2B03
:10025C00B8BFFF23A4F8543008B1FFF71CFFB4F863
:10026C005400FFF714FFE061F8BD00002DE9FF41D9
:10027C0004460025984617460E4600F04FFF0D49E0
:10028C00E56104F1380000F0DAFF9DF82830FF2218
:10029C00CDE902830F232046CDE9003229463B46A7
:1002AC003246A56484F85C50FFF7B2FF204604B0D8
:1002BC00BDE8F081F91D0A0810B50446204600F08F
:1002CC0043FE0028FAD0204600F081FDC0B210BDDC
:1002DC002DE9F0470546C46989460127FFF7ECFF75
:1002EC004FF0000820703C46EB6993F800A00AF030
:1002FC00F00A2846FFF7E0FF2646EB6901349855D3
:10030C0000F07F0303FB07880306A4B21FFA88F8EA
:10031C004FEAC717EDD4631EBAF1300F89F80030DD
:10032C0024D12846EF69FFF7C7FF38552846EF69F7
:10033C00FFF7C2FFF41C0236B6B2B8550226A4B2BF
:10034C00B6B2B1462746C14512D22846FFF7B4FFD4
:10035C00B5F8543009F10109BB4288BFEB691FFAAB
:10036C0089F988BFD8550137BFB2ECE70026E7E71B
:10037C00A8EB0600B0452CBF06460026B5F8540085
:10038C003444A4B2A0422CBF20460020BDE8F08724
:10039C00F7B58C461E461D4607460023AE4605F0B3
:1003AC007F01BEF17F0F02A888BF41F080015C1C69
:1003BC00BEF17F0F03444FEAD515E4B203F8041CD9
:1003CC0010D8C4F10403D11802F803C0C4F105031A
:1003DC00134401A80532934206D010F8015B03F8D0
:1003EC00015BF8E72346D9E7721C2244384600F03B
:1003FC0070FC054600F0BAFA013478623444A8B2B5
:10040C00231A5842584103B0F0BD0233F0B50446EC
:10041C0098B20023CD5C4DB1B4F854605F1C864299
:10042C0004D9461C15543B46B0B2F3E799B2441AB2
:10043C002244091202F8021C02F8013CF0BD38B546
:10044C00044600F012FE002814BF0125002502D13D
:10045C00204600F0B3FD284638BD00002DE9F047DA
:10046C0088B00446894617461E46DDF840809DF844
:10047C0050A0FFF7E4FF0546002840F0CB80214652
:10048C0001A8FFF7AFFEA16C002940F087802B4636
:10049C002046B4F84C20A16B00F058FE002879D00F
:1004AC00012323849DF85430E269042B40F08180B1
:1004BC00594B186899889B79ADF80C108DF80E3053
:1004CC000290C2F805009DF80E30BDF80C10D372E6
:1004DC000C23A2F80910B8F1000F7FD09DF848004A
:1004EC009DF84420400140EAC20040F00600C0B232
:1004FC00BAF1000F01D100F0FD001FB1002E6FD139
:10050C0040F08000E269D054226DE169581C12124F
:10051C000A54E169206D9A1C8854033349462046DD
:10052C00E269FFF772FF0346B8F1000F0BD04146AA
:10053C00E2692046FFF769FFE269034613992046FA
:10054C00FFF763FF034667B139462046E269FFF7C0
:10055C005CFF03462EB131462046E269FFF755FF9A
:10056C000346053B1021E2699BB22046FFF710FFC2
:10057C0000F0FCF94FF47A76C4E90900204600F04B
:10058C00E3FC80BB00F0F2F9A36AC01A236D73433D
:10059C009842F3D9204600F011FD34E002A801F096
:1005AC0013F82B462046B4F84C2002A900F05CFC52
:1005BC0074E71A4B0DF1080C186859681B7AACE8F3
:1005CC0003008CF8003002AB03CBC2F80500C2F874
:1005DC0009109CF8003053730E237CE7022087E748
:1005EC0040F0C0008EE7204602A9FFF771FE0428F8
:1005FC00D0D1E369DE78002ECCD100F0B7F901251B
:10060C00A06284F82C6001A8FFF7F7FD284608B01B
:10061C00BDE8F0870025F9E7981E0A089F1E0A0816
:10062C0010B54FF0040C012486B0CDE9044C002425
:10063C00CDE90244CDE90044FFF710FF06B010BD30
:10064C0073B504460E46FFF7FAFE0546C8B12146BF
:10065C0001A8FFF7C7FD6222E36920461A70022247
:10066C00E3695A70E36932129A70E3690422DE700E
:10067C00E16900F02EFB051E01A818BF0125FFF74C
:10068C00BCFD284602B070BD73B504460E46FFF79C
:10069C00D6FE0546C8B1214601A8FFF7A3FD72227C
:1006AC00E36920461A700222E3695A70E369321238
:1006BC009A70E3690422DE70E16900F00AFB051E02
:1006CC0001A818BF0125FFF798FD284602B070BDA0
:1006DC002DE9F04F87B000AF0446FFF7B0FE81461E
:1006EC00F8B1214607F11400FFF77CFD00F03EF94C
:1006FC004FF47A73226D06465343A26A821A9A42C9
:10070C0003D8626A821A93421FD294F82C306BB1D0
:10071C00204600F053FC4FF0000907F11400FFF7DE
:10072C006CFD48461C37BD46BDE8F08FC021E26920
:10073C0020461170E2695370E169022200F0C9FA97
:10074C000123C4E9096684F82C30204600F0FCFB38
:10075C000028E2D0204607F11301FFF7B9FD8346CC
:10076C000028DAD0E369A662197801F0F002302A89
:10077C007DD1D4F830A0BAF1000FCED097F813C0C9
:10078C00C7F804D003EB0C025578917801EB0521E6
:10079C008DB2694605F10802D208A1EBC20295465A
:1007AC0068460CF10302FA6003EB020E0DEB050236
:1007BC00C7F808D03A603A68B9688A4206D00A4647
:1007CC001EF8018B02F8018BBA60F4E70022425547
:1007DC0093F80080F96808F00608ABEB0C02033ABA
:1007EC00B8F1020FA2EB0502294424D113F801E061
:1007FC00194491F801B00CF105012944023A19444D
:10080C000BEB0E2BD0474022E3691FFA8BFB1A70BF
:10081C00E36983F80180E3694FEA2B229A70E3695C
:10082C00042283F803B02046E16900F052FA6662B4
:10083C00D7F804D071E7B8F1040F15D113F801E023
:10084C00194491F801B00CF105012944023A1944FC
:10085C000BEB0E2BD0475022E3691FFA8BFB1A705F
:10086C000222E3695A70D6E71944D047E0E7502AD0
:10087C0008D19A78D978204601EB022189B2FFF78A
:10088C00DFFE4AE7402A12D1626B002A3FF445AFE3
:10089C00BBF1040F7FF441AF11F0060F7FF43DAFB5
:1008AC009978D87800EB012080B2904735E7602A20
:1008BC0008D19A78D978204601EB022189B2FFF74A
:1008CC00E3FE2AE7702ADFD0902A3FF426AFC02A35
:1008DC000AD1D0221A700022E36920465A70E169CD
:1008EC00022200F0F6F918E7D02A04BF002384F89E
:1008FC002C3012E7F7B504460F461646FFF79FFD5E
:10090C00054610B3214601A8FFF76CFC238C01337C
:10091C009BB2EBB12384238CE2691B125371E36904
:10092C00228C39469A71E26907232046FFF76DFD48
:10093C00E36982211E54043883B2E2692046FFF732
:10094C0027FD054601A8FFF758FC284603B0F0BD6B
:10095C000123DFE70022FFF7CDBF000008B5024BF3
:10096C001B685B68019308BD9C01060808B5024B27
:10097C001B685B69019308BD9C01060808B5024B16
:10098C001B681B6B019308BDD001060808B5024B10
:10099C001B689B6B019308BDD001060808B5024B80
:1009AC001B681B6C019308BDD001060808B5024BEF
:1009BC001B689B69019308BDC401060808B5024B6E
:1009CC001B685B6A019308BDC401060808B5024B9D
:1009DC001B689B6A019308BDC401060808B5024B4D
:1009EC001B68DB6A019308BDC401060808B5024BFD
:1009FC001B681B6B019308BDC401060808B5024BAC
:100A0C001B685B6B019308BDC401060808B5024B5B
:100A1C001B681B6C019308BDC401060808B5024B8A
:100A2C001B681B68019308BDBC01060808B5024B86
:100A3C001B685B68019308BDBC01060808B5024B36
:100A4C001B689B68019308BDBC01060808B5024BE6
:100A5C001B68DB68019308BDBC01060808B5024B96
:100A6C001B681B69019308BDBC01060808B5024B45
:100A7C001B681B6A019308BDBC01060808B5024B34
:100A8C001B681B6B019308BDBC01060808B5024B23
:100A9C001B685B6C019308BDBC01060808B5024BD2
:100AAC001B681B68019308BDD801060808B5024BEA
:100ABC001B685B68019308BDD801060808B5024B9A
:100ACC001B681B69019308BDD801060808B5024BC9
:100ADC001B685B69019308BDD801060808B5024B79
:100AEC001B689B69019308BDD801060808B5024B29
:100AFC001B68DB69019308BDD801060808B5024BD9
:100B0C001B681B6A019308BDD801060808B5024B87
:100B1C001B685B6C019308BDC001060808B5024B4D
:100B2C001B689B6C019308BDC001060808B5024BFD
:100B3C001B681B6D019308BDA801020808B5024B88
:100B4C001B685B68019308BDA401060808B5024B3D
:100B5C001B685B69019308BDA401060808B5034B2B
:100B6C001B68D3F89030019308BD0000A40106085F
:100B7C0008B5034B1B68D3F89C30019308BD0000EB
:100B8C00A401060808B5024B1B685B68019308BDFD
:100B9C00C801060808B5024B1B689B68019308BD89
:100BAC00C801060808B5024B1B68DB68019308BD39
:100BBC00C801060808B5024B1B681B69019308BDE8
:100BCC00C801060808B5024B1B685B69019308BD98
:100BDC00C801060808B5024B1B689B69019308BD48
:100BEC00C801060808B5024B1B68DB69019308BDF8
:100BFC00C801060808B5024B1B681B6A019308BDA7
:100C0C00C801060808B5024B1B681B6B019308BD95
:100C1C00C801060808B5024B1B685B6B019308BD45
:100C2C00C801060808B5024B1B681B6C019308BD74
:100C3C00C801060808B5024B1B685B6C019308BD24
:100C4C00C801060808B5024B1B68DB6B019308BD95
:100C5C00CC01060808B5024B1B681B68019308BD44
:100C6C00A001060808B5024B1B685B68019308BD20
:100C7C00A001060808B5024B1B689B68019308BDD0
:100C8C00A001060808B5024B1B685B6C019308BDFC
:100C9C00A001060802220020044B1A60044B054AEE
:100CAC001860988098719A60FFF748BFEC0000209C
:100CBC00E00000200000FFFF13B503688DF807105B
:100CCC00DC6B012247F230530DF10701A04702B053
:100CDC0010BD10B40368DC6B47F23053A44610BC53
:100CEC00604713B5134602688DF80710D46B0DF1ED
:100CFC0007010122A04702B010BD704770470000E9
:100D0C0010B50446064B0846994204F10C0404D075
:100D1C0000F086FE002808BF0024204610BD00BF4E
:100D2C00E01E0A0810B50446AC2100F077FE204600
:100D3C0010BDFFF7AEB9000038B50B4B8469054602
:100D4C0003607CB16368013B63605BB92368204638
:100D5C009B689847A368013BA3601BB92368204696
:100D6C00DB689847284638BDF01E0A0810B50446C3
:100D7C00FFF7E2FF20461C2100F050FE204610BD7C
:100D8C0070B5044606464D69044B8C3544F8043B5B
:100D9C000FCD0FC42B683046237070BD5C1F0A0842
:100DAC0010B543690446B3F88620B3F884309A42F0
:100DBC0005D06369B3F884201344187910BD036817
:100DCC001B6998470028F4D14FF0FF30F6E710B5B7
:100DDC0043690446B3F88620B3F884309A4208D0AD
:100DEC006369B3F88420511CA3F884101344187958
:100DFC0010BD03681B6998470028F1D14FF0FF30F4
:100E0C00F6E7F8B543691746B3F88620B3F8843093
:100E1C0005469A420E4616D069693046B1F88430C0
:100E2C00B1F88640E41ABC4228BF3C460433224643
:100E3C00194400F00FFF6A69B2F884302344A2F819
:100E4C0084302046F8BD03681B6998470028E3D11D
:100E5C004FF0FF34F5E700234269A2F88430426971
:100E6C00A2F88630704700002DE9F0431F46036856
:100E7C008BB0DB6A05460C4616469847384600F0A0
:100E8C00A9FD0368DB689847002854D03346062236
:100E9C00012102200097D5F81480FFF7CFFD202305
:100EAC00C8F800004FF00008CDE902386B6901204A
:100EBC001B6823490193234B02AA00934346FFF777
:100ECC0035FE6B691868FFF7B1FD002833D0284652
:100EDC00FFF7C1FF0223ADF80830E37976BA8DF83D
:100EEC000C30A3794FF4FA508DF80D306379ADF8CE
:100EFC000A608DF80E3014F8043F8DF80F30FFF7B0
:100F0C0005FE6B6906461022186802A9FFF79EFDC4
:100F1C0081463046FFF7FAFD0FCC6E698C360FC652
:100F2C00236833702F61B9F1000F07D02B68284666
:100F3C00DB6A984740460BB0BDE8F0830120FAE726
:100F4C00A81E0A08AF1E0A0838B542690446B2F852
:100F5C0086302BB1B2F884209A4201D1FFF77BFF87
:100F6C00206900F037FD0368DB689847F8B16369C6
:100F7C001868FFF75BFDD0B16069B0F886107F2967
:100F8C0015D8051DC1F18002002300682944FFF724
:100F9C0065FD00280BDD6369B3F886200AB9A3F858
:100FAC0084206369B3F886201044A3F88600636933
:100FBC00B3F88600B3F88430C01A38BD38B543692D
:100FCC0004461868FFF732FD18B163691868FFF71B
:100FDC004DFD6569FFF752FD286060691122002103
:100FEC008C3000F045FE2046BDE83840FFF733BF9B
:100FFC0010B5436904461868FFF718FD08B90020BE
:10100C0010BD206900F0E6FC0368DB6898470028F7
:10101C00F5D063691868FFF701FDB0FA80F040095C
:10102C00EEE708B5FFF7E4FF003818BF012008BD54
:10103C002DE9F3410027476004460D4616469846B5
:10104C00FFF7D6FF70B1CDE9008760693B463246A9
:10105C0029460068FFF71AFD002800DA606002B02C
:10106C00BDE8F0814FF0FF30F8E770B50546FFF7AB
:10107C00BFFFE8B96B69B3F88610B3F884209142CE
:10108C0016D11868FFF7D2FC08B9002070BD6B6947
:10109C001868FFF7C3FC01280446F6D12B682846D4
:1010AC001B69984730B92B682846DB6A9847ECE7F0
:1010BC000120EBE72046E9E7002310B50446016068
:1010CC00C0F88430883000F033FA204610BD0000A0
:1010DC00F8B54FF47A720023C0E901320D4A03616E
:1010EC00026043610446AC200E46FEF7CEFF051E9F
:1010FC0005F10C0708D00123C5E90133064B314635
:10110C0038462B60FFF7D8FF2046C4E90575FFF77A
:10111C00A2FEF8BDF01E0A08CC1E0A0810B5044643
:10112C00FFF7ACFC01462046FFF7D2FF204610BD6E
:10113C0010B504460068FFF779FC10B12068FFF782
:10114C0095FC204610BD0C30FFF7F2BF2DE9F043A3
:10115C001F4603688FB0DB6A06460D4690469847DB
:10116C00134800F0E2FBF0B102A800F0E1F92846C8
:10117C0000F0B4FD002481B23B462846009403AA3B
:10118C00FFF7CCFC90B9336809ADD3F82090094B2C
:10119C0003AC08930FCC0FC5236842462B70304626
:1011AC003B4608A9C8470FB0BDE8F0832046FAE7D4
:1011BC00680100205C1F0A0810B50446006808B1DD
:1011CC00FFF750FD0023C4E90133236010BD38B58F
:1011DC0004460D4600680131FFF74CFD10B1C4E91F
:1011EC000005012038BD10B50368044623B14368DF
:1011FC008B4201D3012010BD2046FFF7E8FF0028E9
:10120C00F9D0A368002BF5D122681370F2E770B502
:10121C000E46114604461546FFF7E5FF20B9204659
:10122C00FFF7CAFF204670BD2A4631462068A560EC
:10123C0000F010FD00212268A368D154F2E738B504
:10124C00002304460D46C0E900338360037339B1B3
:10125C00084600F043FD294602462046FFF7D7FF1B
:10126C00204638BD38B505460C4649B1084600F055
:10127C0035FD214602462846FFF7C9FF284638BDF2
:10128C00FFF79AFFFAE7F8B506460D4600248F18CB
:10129C00BD420CD0336830469B6815F8011B98474B
:1012AC00031E01DB1C44F3E7002C08BF1C46204640
:1012BC00F8BD70B505460C46084649B100F00EFD68
:1012CC002B68024621462846BDE87040DB6818476B
:1012DC0070BD08B5FFF7EDFF08BD03689B681847A4
:1012EC0038B50D210546FFF7F8FF0A2104462846BC
:1012FC00FFF7F3FF204438BD38B50546FFF7D9FF9B
:10130C0004462846FFF7ECFF204438BD0023012A91
:10131C0098BF0A2230B58BB00C468DF8243009A941
:10132C002546B4FBF2F404FB1253DBB2092B94BF39
:10133C0030333733DBB2AA4201F8013DF0D9FFF765
:10134C00B8FF0BB030BD002340681A461946FFF7B2
:10135C0039BC0000014B024A1A607047F0000020B3
:10136C00341F0A08024B1A68024B1A60704700BF00
:10137C0014000020F40000200021FFF7E7BB000060
:10138C000022014B9A607047F8000020014B186056
:10139C00704700BF1800002008B5134B43B100F094
:1013AC007BF903681B699847002801DDAFF30080C7
:1013BC000E4B43B100F012FA03681B6998470028E2
:1013CC0001DDAFF300800A4B0BB1AFF30080094B8A
:1013DC0043B100F08DF903681B699847002801DDC3
:1013EC00AFF3008008BD00BF00000000000000004B
:1013FC00000000000000000008B5FFF7CDFFFFF76C
:10140C00B5FA014B186008BD700100200548064A6A
:10141C0008B5121A054900F01DFC054B054A1A6067
:10142C0008BD00BF004002400440024060210A0891
:10143C00004002401E1C279A002307B51A466FF085
:10144C0077010093FFF794FB03B05DF804FB0000F9
:10145C0007B543880A2B08D0502B0BD1094B1B68BE
:10146C004BB103B05DF804EB1847FFF7E5FF03B091
:10147C005DF804FB00231A466FF077010093FFF729
:10148C0077FBF4E70C010020002110B51148FFF7A1
:10149C00F9FB114B1A68114B9A420CBF0122002226
:1014AC000F4B1A7001D0FFF7B1FFFFF757FA044644
:1014BC0000F0E6FB0B4B13B12046AFF3008000218C
:1014CC000848FFF7BFFBBDE8104000210648FFF7B6
:1014DC0045BB00BF99130A08004002401E1C279A06
:1014EC0008010020000000005D140A08704710B5C8
:1014FC000446182100F092FA204610BDF8B50E46AD
:10150C00002400F10807051D17F8011D0A223046BA
:10151C00FFF7FCFEAF42044401D12046F8BD002C7D
:10152C00F2D02E213046FFF7D8FE0444ECE7000041
:10153C0010B50446044B1122002140F8043B00F086
:10154C0097FB204610BD00BF5C1F0A080346074AE4
:10155C0010B543F8042B01F1100251F8044B9142E1
:10156C0043F8044BF9D10A781A7010BD5C1F0A08B5
:10157C00024AC0E900210422027570475C1F0A0868
:10158C0010B59DF8084044EA0324042344EA0244BD
:10159C0044EA01644460037510BD000037B5044D86
:1015AC0005609DF818500095FFF7EAFF03B030BDB9
:1015BC005C1F0A0813B5CB7800938B784A780978AE
:1015CC00FFF7DEFF02B010BD10B50446024B0360FE
:1015DC00FFF7F0FF204610BD5C1F0A0841747047EE
:1015EC007047704708B50021007CFFF777FA40EA96
:1015FC00E07008BD08B50121007CFFF76FFA40EAE6
:10160C00E07008BD08B5007CFFF760FA20EAE070D6
:10161C0008BD08B5007CFFF751FA20EAE07008BD60
:10162C0038B50446007C0D46FFF750FA002801DC63
:10163C00607C28B12946207CFFF758FA20EAE0703C
:10164C0038BD007CFFF75ABA10B50446142100F0DF
:10165C00E5F9204610BD704710B54FF47A73044677
:10166C0008460021C4E90113044B207423600123B4
:10167C0011466374FFF712FA204610BD701F0A085A
:10168C000022007CFFF712BA10B504461422002188
:10169C0000F0EEFA204610BD30B50E4D87B001A813
:1016AC00FFF7F2FF2978BFF35B8F11F001040ED125
:1016BC002846FEF7F2FC50B1214601AA0648FFF776
:1016CC00CBFF2846FEF7EEFC044800F0BDFA0248BA
:1016DC0007B030BD1001002018010020ED150A08DC
:1016EC0010B504461422002100F0C2FA204610BDA9
:1016FC0010B50E4C86B001A8FFF7F2FF2378BFF3AC
:10170C005B8FDB070ED42046FEF7C7FC50B10121DE
:10171C0001AA0748FFF7A0FF2046FEF7C3FC0548C7
:10172C0000F092FA024806B010BD00BF1401002070
:10173C002C01002063160A087047417470477047EB
:10174C0008B5007CFFF762F920EAE07008BD08B527
:10175C00007CFFF73BF920EAE07008BD08B5007C7F
:10176C00FFF744F940EAE07008BD08B5007CFFF7CC
:10177C0035F940EAE07008BD007CFFF73FB970B561
:10178C00467C04460D462EB12946207CBDE87040AF
:10179C00FFF714B9007CFFF739F90028F4DC304668
:1017AC0070BD10B50446142100F038F9204610BD68
:1017BC004FF0000C10B50446084611464FF47A72EF
:1017CC00C4E901C2044A20742260012262741A46E0
:1017DC00FFF7ECF8204610BDA01F0A08F8B5194C0D
:1017EC0026684EB98420FEF750FC054618B18422B9
:1017FC00314600F03DFA2560134D2F684FB9842017
:10180C00FEF743FC064618B18422394600F030FA44
:10181C002E600E4F3978BFF35B8F11F001060FD19C
:10182C003846FEF73AFC58B131462B682268084816
:10183C00FFF7BEFF3846FEF735FC064800F004FA09
:10184C000348F8BD4401002048010020400100205D
:10185C004C0100204B170A08002240681146FFF784
:10186C00A9B9F0B5154689B011220E4604460021DF
:10187C0003A800F0FDF9284600F030FA002781B2E9
:10188C0073682846009703AAFFF748F930B1394628
:10189C002046FFF76DFE204609B0F0BD204603A997
:1018AC00FFF754FEF7E7002240681146FFF7A2B994
:1018BC00002240681146FFF7ADB900224068FFF7DF
:1018CC00A1B90022406881F00101FFF78BB9002318
:1018DC0040681A461946FFF77DB900224068114648
:1018EC00FFF758B9002202214068FFF75BB90023CB
:1018FC0040681A46FFF746B90422024B5A60024A66
:10190C001A60704760010020D01F0A08002340684D
:10191C001A46FFF737B9002202214068FFF742B997
:10192C00002240681146FFF735B900224068114685
:10193C00FFF740B9002340681A461946FFF742B931
:10194C00002340681A461946FFF744B90021406845
:10195C00FFF768B900214068FFF76CB900224068B6
:10196C0081F00101FFF73EB900224068FFF74AB948
:10197C00002240681146FFF74DB90022406811461D
:10198C00FFF738B970B515468EB0044608A8FFF7B6
:10199C00CFFD1122002103A800F06AF90026284689
:1019AC0000F09CF90A4B009681B25B68284603AAAA
:1019BC00FFF7B4F830B131462046FFF7D9FD204689
:1019CC000EB070BD204603A9FFF7C0FDF7E700BFBE
:1019DC0060010020034A044B042814BF104618462B
:1019EC00704700BF6801002060010020024B034AD1
:1019FC001A6000225A607047680100200C200A0807
:101A0C00002307B51A46194600930348FFF7C6FD95
:101A1C0003B05DF804FB00BF74010020FEF739BB76
:101A2C00014900F0FBB800BF58200A087FB500241C
:101A3C001023CDE90234036815469E6912686B4683
:101A4C0000948DF80440B0479DF8043003F0060371
:101A5C00062B09BF01202046009B2B6004B070BDF3
:101A6C000098904214BF01200620704710B5044620
:101A7C00024B036000F0CFF8204610BD98200A08F6
:101A8C0010B50446FFF7F2FF20460821FFF7C6FF0A
:101A9C00204610BD2DE9F041DDF818801F46DDE928
:101AAC00083498450646154607D1079900F0B6F854
:101ABC0018B165710020BDE8F0813946304600F060
:101ACC00ADF80028F6D00123C4F800802571A3716D
:101ADC00F0E738B515461C4600F0A0F820B10823F5
:101AEC00E36006232560237138BD2DE9F0410546DE
:101AFC000C4616461F4600F091F848B9032F07D83C
:101B0C002368324629462046BDE8F0415B691847F8
:101B1C00BDE8F08110B50446024B0360FFF7A6FF49
:101B2C00204610BDF8200A0810B50446FFF7F2FF56
:101B3C0020460C21FFF772FF204610BD2DE9F04125
:101B4C00DDF81880064690450F4615461C460BD00E
:101B5C00B0682A460368CDF818801E6A39462346B9
:101B6C00B446BDE8F0416047194600F057F800282C
:101B7C00EED00620BDE8F0812DE9F14F0D46DDE9F0
:101B8C000A4BDDE90CA6194681461746984600F02B
:101B9C0045F890B1002D3460377109DB2C44A24517
:101BAC000CBF06240124B471002001B0BDE8F08FF5
:101BBC000235F9D10123B371F6E7544506D15946E4
:101BCC00484600F02BF808B17771EDE7D9F808001A
:101BDC003A460368CDE90CA6CDE90A4BDC692946E7
:101BEC004346A44601B0BDE8F04F60472DE9F041F3
:101BFC0007460C4615461E46FFF76BFF48B9B868FA
:101C0C002A46036821469F693346BC46BDE8F0412D
:101C1C006047BDE8F081704700207047814208B5ED
:101C2C000ED0406803782A2B0CD049680B782A2BED
:101C3C0008BF013100F048F8B0FA80F0400908BD47
:101C4C000120FCE70020FAE7002301461A4618465B
:101C5C0000F04CB80A44914200F1FF3300D17047B8
:101C6C0010B511F8014B914203F8014FF9D110BD99
:101C7C0003460244934200D1704703F8011BF9E775
:101C8C0038B50D4B04461D68AB6B7BB91820FEF7BD
:101C9C00E1FF0A4A0A4BA863C0E90023094B012261
:101CAC0083600B2383810023C0E904230022AB6BE8
:101CBC001C615A6138BD00BF180000200E33CDAB3B
:101CCC0034126DE6ECDE050010F8012B11F8013B27
:101CDC00012A28BF9A42F7D0D01A7047034613F84E
:101CEC00012B002AFBD1181A013870472DE9F84353
:101CFC00DFF8BC800646D8F800001F460D4691461A
:101D0C0000F058F8264B1C6834B9264C1C60264B46
:101D1C0013B11B68C4F8883063681F2B07DDD8F833
:101D2C00000000F049F84FF0FF30BDE8F8835EB3D7
:101D3C00D4F8880088B91D4B23B9D8F8000000F0FE
:101D4C003AF8F0E74FF48470FEF784FF0028F4D0E3
:101D5C000023C0E94033C4F8880001226368022ED6
:101D6C0040F8239002FA03F200EB8301D0F8003123
:101D7C0043EA0203C0F80031C1F8807002BFD0F80A
:101D8C0004311A43C0F804216368D8F800005A1CC7
:101D9C000233626044F8235000F00EF80020C4E7D0
:101DAC00180200208C01002000000000610C0A08C1
:101DBC007C00002070477047704700001D000A0827
:101DCC005D000A0885000A0889000A080000000066
:101DDC0052656365697665642061206D6573736116
:101DEC006765206F6E20746F7069633A20002E2037
:101DFC004D6573736167653A2000436F6E6E656362
:101E0C0074696E6720746F20576946692E2E2E00F8
:101E1C00436F6E6E656374656420746F20576946FA
:101E2C006900436F6E6E656374656420746F204D3A
:101E3C005154542042726F6B657200746573742F29
:101E4C00746F706963004661696C656420746F20FF
:101E5C00636F6E6E65637420746F204D5154542003
:101E6C0042726F6B65720070686F746F6E36305FA4
:101E7C00697169796A76616A610076696C6C614E28
:101E8C006F766100656365323433310000044D5167
:101E9C0054540400064D5149736470037769726998
:101EAC006E6700544350436C69656E7420736F63A6
:101EBC006B65743D257800000000000000000000F8
:101ECC00090D0A08310D0A0853110A083F0D0A08BA
:101EDC000D0D0A08000000000000000000000000CA
:101EEC0000000000450D0A08790D0A08C50C0A0807
:101EFC00DF0C0A08550F0A08DB0D0A08AD0D0A089D
:101F0C00070D0A08750E0A0859110A080F0E0A085F
:101F1C00C90F0A0877100A082F100A08EF0C0A08D4
:101F2C003D100A088D0D0A086170700025592D2589
:101F3C006D2D25645425483A254D3A2553257A00B4
:101F4C0061736374696D650000000000000000009F
:101F5C0009150A08F9140A08FB140A080000000005
:101F6C0000000000EF150A0855160A082D160A087D
:101F7C0093120A081F160A08F1150A0801160A0816
:101F8C004F160A0811160A08E9150A080000000085
:101F9C000000000045170A08AF170A088B170A083B
:101FAC0093120A085B170A0877170A0869170A08B8
:101FBC0085170A0847170A084D170A080000000081
:101FCC0000000000FB180A08F1180A08E7180A08B4
:101FDC0065180A0853130A08DB180A0859190A0865
:101FEC0061190A08CF180A08C7180A08BD180A0888
:101FFC00B3180A086F180A0800000000000000005F
:10200C0019190A0823190A082D190A0837190A0878
:10201C0041190A084D190A0859190A0861190A08C0
:10202C0069190A0875190A087D190A0887190A0816
:10203C0091190A08537431395F53705F6D616B6588
:10204C005F7368617265645F7461670098200A0849
:10205C0040200A08F8200A086C200A081C210A08EB
:10206C004E31305F5F637878616269763131375F0A
:10207C005F636C6173735F747970655F696E666FB3
:10208C00450000000000000060200A08791A0A08C8
:10209C008D1A0A08251C0A08251C0A08F71A0A08B2
:1020AC00391A0A08DF1A0A08A11A0A086D1A0A084E
:1020BC00F8200A08C8200A0860200A084E31305F50
:1020CC005F637878616269763132305F5F73695F24
:1020DC00636C6173735F747970655F696E666F456D
:1020EC000000000000000000BC200A08211B0A08A8
:1020FC00351B0A08251C0A08251C0A08F71A0A08A9
:10210C00391A0A08F91B0A08851B0A08491B0A0810
:10211C0098200A0824210A08537439747970655F71
:10212C00696E666F00000000C5010A08A10C0A0860
:10213C0061130A0871130A088D130A0805190A0895
:10214C00F9190A080D1A0A08000000000000000026
:04215C00000000007F
:04216000000000007B
:10216400731E0A08861E0A085B0798683DDA000099
:10217400901E0A084C1F0A081C00002000000000E2
:10218400000000000000000000000000000000004B
:10219400000000000000000000000000000000003B
:1021A400000000000000000000000000000000002B
:1021B400000000000000000000000000000000001B
:1021C400000000000000000000000000000000000B
:1021D4000000000000000000000000001D020020BC
:1021E400FFFFFFFF00000102030405060708090AB8
:1021F4000B0C0D0E0F101112131415161718191AB3
:082204001B1C1D1E1F202800F9
:04220C0078563412BA
:04000005080A001CC9
:00000001FF
