:02000004080AE8
:1000000000000A088C210A0800000600060005010D
:080010000402FE0800000000DC
:04001800D41C0A08E2
:10001C0009480A4908B5884205D0094A824202D0EB
:10002C00121A01F09DFD0748074A0021121A01F02F
:10003C00A5FD064808BD00BF00000020E4200A080A
:10004C0080000020800000205D0600205D0600205E
:10005C0070B501F09DF90025054E064CA41BA408B3
:10006C00A54200D170BD56F8043B98470135F7E71F
:10007C00C0200A08E0200A0800F042B808B500F0D9
:10008C00B1F8BDE8084001F03BB900F067BD00F0E5
:10009C0065BD00F06BBD00F069BD0078B0FA80F072
:1000AC00400970470123037070470000B0B502F19E
:1000BC00080323F0070300AFADEB030D05466846BC
:1000CC00144601F04DFD00230DF8043001F076FAD2
:1000DC00094901F082F801F071FA294601F07DF826
:1000EC0001F06CFA054901F078F801F067FA6946FD
:1000FC0001F086F8BD46B0BDE81C0A08061D0A08CA
:10010C0030B587B001F05AFA4FF4165101F03CFAB1
:10011C00254D264C00226868114600F0BFFC48B102
:10012C004FF47A7001F0ACF801F048FA214601F076
:10013C0067F8EFE701F042FA1D4901F061F81D4B39
:10014C001D4A1E491B68126809681D4800F07AFB9D
:10015C00F0B101F033FA1B4901F052F81A49184872
:10016C0000F0CFF91949684601F0B2F9184A00239A
:10017C0069461288174800F0FBFD78B101F01EFAB1
:10018C00154901F03DF8134801F02EF807B030BDC9
:10019C0001F014FA114901F033F8E3E701F00EFA1B
:1001AC000F4901F02DF8F1E798050020121D0A08FF
:1001BC00281D0A0804000020100000200000002068
:1001CC00980000203A1D0A08531D0A080A00002056
:1001DC0008000020F80000207F1D0A085E1D0A0898
:1001EC00891D0A0870470000002313B5094A0A4C00
:1001FC0000932146094B1288094800F05BF8214610
:10020C00084801F065F9084802B0BDE8104000F05C
:10021C0009BF00BF080000200A000020B9000A082E
:10022C009800002080000020F800002091F85C303D
:10023C0010B50446016013B1886D00F02BFB20460D
:10024C0010BD10B50368044693F85C2012B1986D8C
:10025C0000F028FB204610BDF8B51F469DF8243051
:10026C0004460D46164623B101235830037100F0A5
:10027C0009FB089B23630023636306B1A66425B1C5
:10028C00294604F1380000F071FF069BE0692365F4
:10029C00079BA4F84C70FF2BB8BFFF23A4F8543075
:1002AC0008B1FFF7F8FEB4F85400FFF7F0FEE06178
:1002BC00F8BD00002DE9FF4104460025984617467D
:1002CC000E4600F0AFFE0D49E56104F1380000F078
:1002DC003AFF9DF82830FF22CDE902830F232046F8
:1002EC00CDE9003229463B463246A56484F85C5081
:1002FC00FFF7B2FF204604B0BDE8F081051D0A08E7
:10030C0010B50446204600F0A3FD0028FAD0204684
:10031C0000F0E1FCC0B210BD2DE9F0470546C46900
:10032C0089460127FFF7ECFF4FF0000820703C4690
:10033C00EB6993F800A00AF0F00A2846FFF7E0FFFB
:10034C002646EB690134985500F07F0303FB0788C0
:10035C000306A4B21FFA88F84FEAC717EDD4631E40
:10036C00BAF1300F89F8003024D12846EF69FFF735
:10037C00C7FF38552846EF69FFF7C2FFF41C023659
:10038C00B6B2B8550226A4B2B6B2B1462746C1459C
:10039C0012D22846FFF7B4FFB5F8543009F1010921
:1003AC00BB4288BFEB691FFA89F988BFD855013762
:1003BC00BFB2ECE70026E7E7A8EB0600B0452CBF80
:1003CC0006460026B5F854003444A4B2A0422CBF13
:1003DC0020460020BDE8F087F7B58C461E461D462A
:1003EC0007460023AE4605F07F01BEF17F0F02A841
:1003FC0088BF41F080015C1CBEF17F0F03444FEAC3
:10040C00D515E4B203F8041C10D8C4F10403D118B8
:10041C0002F803C0C4F10503134401A8053293424A
:10042C0006D010F8015B03F8015BF8E72346D9E727
:10043C00721C2244384600F0D0FB054600F01AFA34
:10044C00013478623444A8B2231A5842584103B09C
:10045C00F0BD0233F0B5044698B20023CD5C4DB12B
:10046C00B4F854605F1C864204D9461C15543B46B4
:10047C00B0B2F3E799B2441A2244091202F8021CF2
:10048C0002F8013CF0BD38B5044600F072FD0028BE
:10049C0014BF0125002502D1204600F013FD28468B
:1004AC0038BDF7B504460F461646FFF7ECFF054678
:1004BC0010B3214601A8FFF7B9FE238C01339BB280
:1004CC00EBB12384238CE2691B125371E369228CF8
:1004DC0039469A71E26907232046FFF7BAFFE369B0
:1004EC0082211E54043883B2E2692046FFF774FF60
:1004FC00054601A8FFF7A5FE284603B0F0BD012371
:10050C00DFE70022FFF7CDBF38B5054642B90368D7
:10051C009B6898470446284600F066FE204438BD88
:10052C00D2B200F077FEF5E72DE9F04F93B01E46FE
:10053C009DF88030044689461746DDF87080039399
:10054C00FFF7A1FF0546002840F06481214605A86D
:10055C00FFF76CFEA16C002940F014812B4620465D
:10056C00B4F84C20A16B00F075FD834628BBA06C41
:10057C00837842780178C078009006A800F092FF4A
:10058C00A84B0DF1340C0DF11C0E0C93BEE80F00B2
:10059C00ACE80F00DEF8003020468CF80030B4F8E0
:1005AC004C205B460CA900F0E3FB002800F0F58022
:1005BC0001F004F89C4900F023FE00F0FFFFA16C51
:1005CC008246B1FA81F10A22490900F023FE504615
:1005DC0000F00AFE00F0F2FFA36C0A221978FFF774
:1005EC0093FF00F0EBFFA36C0A225978FFF78CFF06
:1005FC0000F0E4FFA36C0A229978FFF785FF00F066
:10060C00DDFFA36C0A22D978FFF77EFF00F0D6FF3E
:10061C00A16B00F0F5FD00F0D1FFA16B00F0F0FD37
:10062C0000F0CCFF82460A22B4F84C1000F0F2FD28
:10063C00504600F0D9FD00F0C1FF7C4900F0E0FD10
:10064C0000F0BCFFBBF1000F824680F2AA802D2186
:10065C0000F0C7FDCBF100010A22504600F0DAFD94
:10066C00504600F0C1FDBBF1000F00F0CD8001231E
:10067C0023849DF88430E269042B40F094806C4B09
:10068C00186899889B79ADF834108DF836300C9039
:10069C00C2F805009DF83630BDF83410D3720C2327
:1006AC00A2F80910B8F1000F00F092809DF87800C4
:1006BC009DF87420400140EAC20040F00600C0B230
:1006CC00039A0AB900F0FD0027B1002E40F0828099
:1006DC0040F08000E269D054226DE169581C12127E
:1006EC000A54E169206D9A1C88540333494620460C
:1006FC00E269FFF7AEFE0346B8F1000F0BD041469E
:10070C00E2692046FFF7A5FEE26903461F992046E1
:10071C00FFF79FFE034667B139462046E269FFF7B3
:10072C0098FE03462EB131462046E269FFF791FE52
:10073C000346053B1021E2699BB22046FFF74CFEB5
:10074C0000F098F84FF47A76C4E90900204600F0DE
:10075C007FFB002841D100F08DF8A36AC01A236DED
:10076C0073439842F2D9204600F0ACFB00F026FF10
:10077C00304900F045FD05A8FFF763FD284613B08E
:10078C00BDE8F08F0CA800F0A3FE2B462046B4F871
:10079C004C200CA900F0ECFAE7E600F00FFF26491C
:1007AC0009E7594658E7254B0DF1300C1868596884
:1007BC001B7AACE803008CF800300CAB03CBC2F80E
:1007CC000500C2F809109CF8003053730E2369E73A
:1007DC00022075E740F0C0007CE720460CA9FFF72B
:1007EC009BFD042810D1E369DD7835B900F042F89F
:1007FC0084F82C50A0620125BDE700F0DFFEE36910
:10080C000A22D978FFF780FE204600F05BFB05A892
:10081C00FFF717FD00F0D2FE094900F0F1FC0025AE
:10082C00ACE700BFE81E0A08C01D0A08DF1D0A0855
:10083C00221E0A08ED1D0A08C81D0A08291E0A08EE
:10084C000B1E0A0810B54FF0040C012486B0CDE93C
:10085C00044C0024CDE90244CDE90044FFF764FECA
:10086C0006B010BD08B5024B1B685B68019308BD50
:10087C009C01060808B5024B1B685B69019308BD17
:10088C009C01060808B5024B1B681B6B019308BD45
:10089C00D001060808B5024B1B689B6B019308BD81
:1008AC00D001060808B5024B1B681B6C019308BDF0
:1008BC00D001060808B5024B1B689B69019308BD63
:1008CC00C401060808B5024B1B685B6A019308BD9E
:1008DC00C401060808B5024B1B689B6A019308BD4E
:1008EC00C401060808B5024B1B68DB6A019308BDFE
:1008FC00C401060808B5024B1B681B6B019308BDAD
:10090C00C401060808B5024B1B685B6B019308BD5C
:10091C00C401060808B5024B1B681B6C019308BD8B
:10092C00C401060808B5024B1B681B68019308BD7F
:10093C00BC01060808B5024B1B685B68019308BD37
:10094C00BC01060808B5024B1B689B68019308BDE7
:10095C00BC01060808B5024B1B68DB68019308BD97
:10096C00BC01060808B5024B1B681B69019308BD46
:10097C00BC01060808B5024B1B681B6A019308BD35
:10098C00BC01060808B5024B1B681B6B019308BD24
:10099C00BC01060808B5024B1B685B6C019308BDD3
:1009AC00BC01060808B5024B1B681B68019308BD07
:1009BC00D801060808B5024B1B685B68019308BD9B
:1009CC00D801060808B5024B1B681B69019308BDCA
:1009DC00D801060808B5024B1B685B69019308BD7A
:1009EC00D801060808B5024B1B689B69019308BD2A
:1009FC00D801060808B5024B1B68DB69019308BDDA
:100A0C00D801060808B5024B1B681B6A019308BD88
:100A1C00D801060808B5024B1B685B6C019308BD36
:100A2C00C001060808B5024B1B689B6C019308BDFE
:100A3C00C001060808B5024B1B681B6D019308BD6D
:100A4C00A801020808B5024B1B685B68019308BD3E
:100A5C00A401060808B5024B1B685B69019308BD2D
:100A6C00A401060808B5034B1B68D3F8903001931A
:100A7C0008BD0000A401060808B5034B1B68D3F899
:100A8C009C30019308BD0000A401060808B5024B78
:100A9C001B685B68019308BDC801060808B5024BCA
:100AAC001B689B68019308BDC801060808B5024B7A
:100ABC001B68DB68019308BDC801060808B5024B2A
:100ACC001B681B69019308BDC801060808B5024BD9
:100ADC001B685B69019308BDC801060808B5024B89
:100AEC001B689B69019308BDC801060808B5024B39
:100AFC001B68DB69019308BDC801060808B5024BE9
:100B0C001B681B6A019308BDC801060808B5024B97
:100B1C001B681B6B019308BDC801060808B5024B86
:100B2C001B685B6B019308BDC801060808B5024B36
:100B3C001B681B6C019308BDC801060808B5024B65
:100B4C001B685B6C019308BDC801060808B5024B15
:100B5C001B68DB6B019308BDCC01060808B5024B82
:100B6C001B681B68019308BDA001060808B5024B61
:100B7C001B685B68019308BDA001060808B5024B11
:100B8C001B689B68019308BDA001060808B5024BC1
:100B9C001B685B6C019308BDA001060802220020B3
:100BAC00044B1A60044B054A1860988098719A603F
:100BBC00FFF748BF20010020140100200000FFFFB8
:100BCC0013B503688DF80710DC6B012247F2305324
:100BDC000DF10701A04702B010BD10B40368DC6B27
:100BEC0047F23053A44610BC604713B51346026855
:100BFC008DF80710D46B0DF107010122A04702B04C
:100C0C0010BD70477047000010B50446064B0846EF
:100C1C00994204F10C0404D000F088FE002808BFAF
:100C2C000024204610BD00BF6C1E0A0810B50446F7
:100C3C00AC2100F079FE204610BDFFF72ABA000067
:100C4C0038B50B4B8469054603607CB16368013B86
:100C5C0063605BB9236820469B689847A368013B97
:100C6C00A3601BB923682046DB689847284638BD2B
:100C7C007C1E0A0810B50446FFF7E2FF20461C2133
:100C8C0000F052FE204610BD70B5044606464D6974
:100C9C00044B8C3544F8043B0FCD0FC42B68304605
:100CAC00237070BDE81E0A0810B543690446B3F8FA
:100CBC008620B3F884309A4205D06369B3F8842057
:100CCC001344187910BD03681B6998470028F4D1A8
:100CDC004FF0FF30F6E710B543690446B3F88620B1
:100CEC00B3F884309A4208D06369B3F88420511C5D
:100CFC00A3F884101344187910BD03681B69984736
:100D0C000028F1D14FF0FF30F6E7F8B543691746EC
:100D1C00B3F88620B3F8843005469A420E4616D0B6
:100D2C0069693046B1F88430B1F88640E41ABC42A7
:100D3C0028BF3C4604332246194400F011FF6A696F
:100D4C00B2F884302344A2F884302046F8BD0368FE
:100D5C001B6998470028E3D14FF0FF34F5E70023D7
:100D6C004269A2F884304269A2F8863070470000CC
:100D7C002DE9F0431F4603688BB0DB6A05460C4631
:100D8C0016469847384600F0ABFD0368DB68984779
:100D9C00002854D033460622012102200097D5F8B2
:100DAC001480FFF7CFFD2023C8F800004FF0000897
:100DBC00CDE902386B6901201B6823490193234B51
:100DCC0002AA00934346FFF735FE6B691868FFF7DC
:100DDC00B1FD002833D02846FFF7C1FF0223ADF840
:100DEC000830E37976BA8DF80C30A3794FF4FA50C9
:100DFC008DF80D306379ADF80A608DF80E3014F86B
:100E0C00043F8DF80F30FFF705FE6B690646102284
:100E1C00186802A9FFF79EFD81463046FFF7FAFDE0
:100E2C000FCC6E698C360FC6236833702F61B9F105
:100E3C00000F07D02B682846DB6A984740460BB05A
:100E4C00BDE8F0830120FAE7321E0A08391E0A08B1
:100E5C0038B542690446B2F886302BB1B2F884201A
:100E6C009A4201D1FFF77BFF206900F039FD03683E
:100E7C00DB689847F8B163691868FFF75BFDD0B180
:100E8C006069B0F886107F2915D8051DC1F1800264
:100E9C00002300682944FFF765FD00280BDD63691A
:100EAC00B3F886200AB9A3F884206369B3F88620C6
:100EBC001044A3F886006369B3F88600B3F8843055
:100ECC00C01A38BD38B5436904461868FFF732FDBF
:100EDC0018B163691868FFF74DFD6569FFF752FD9E
:100EEC0028606069112200218C3000F047FE2046FA
:100EFC00BDE83840FFF733BF10B5436904461868A6
:100F0C00FFF718FD08B9002010BD206900F0E8FCBF
:100F1C000368DB6898470028F5D063691868FFF709
:100F2C0001FDB0FA80F04009EEE708B5FFF7E4FFE9
:100F3C00003818BF012008BD2DE9F3410027476098
:100F4C0004460D4616469846FFF7D6FF70B1CDE91C
:100F5C00008760693B46324629460068FFF71AFD58
:100F6C00002800DA606002B0BDE8F0814FF0FF307D
:100F7C00F8E770B50546FFF7BFFFE8B96B69B3F842
:100F8C008610B3F88420914216D11868FFF7D2FC72
:100F9C0008B9002070BD6B691868FFF7C3FC012805
:100FAC000446F6D12B6828461B69984730B92B6844
:100FBC002846DB6A9847ECE70120EBE72046E9E797
:100FCC00002310B504460160C0F88430883000F06E
:100FDC0033FA204610BD0000F8B54FF47A720023A6
:100FEC00C0E901320D4A0361026043610446AC2042
:100FFC000E46FFF74AF8051E05F10C0708D0012331
:10100C00C5E90133064B314638462B60FFF7D8FF54
:10101C002046C4E90575FFF7A2FEF8BD7C1E0A0840
:10102C00581E0A0810B50446FFF7ACFC01462046D2
:10103C00FFF7D2FF204610BD10B504460068FFF73D
:10104C0079FC10B12068FFF795FC204610BD0C30E0
:10105C00FFF7F2BF2DE9F0431F4603688FB0DB6A40
:10106C0006460D4690469847134800F0E4FBF0B155
:10107C0002A800F0E1F9284600F0B6FD002481B288
:10108C003B462846009403AAFFF7CCFC90B9336882
:10109C0009ADD3F82090094B03AC08930FCC0FC5C6
:1010AC00236842462B7030463B4608A9C8470FB010
:1010BC00BDE8F0832046FAE7A0050020E81E0A08E8
:1010CC0010B50446006808B1FFF750FD0023C4E9D1
:1010DC000133236010BD38B504460D46006801315C
:1010EC00FFF74CFD10B1C4E90005012038BD10B567
:1010FC000368044623B143688B4201D3012010BD21
:10110C002046FFF7E8FF0028F9D0A368002BF5D1A3
:10111C0022681370F2E770B50E4611460446154668
:10112C00FFF7E5FF20B92046FFF7CAFF204670BD48
:10113C002A4631462068A56000F012FD0021226885
:10114C00A368D154F2E738B5002304460D46C0E934
:10115C0000338360037339B1084600F045FD29461E
:10116C0002462046FFF7D7FF204638BD38B5054666
:10117C000C4649B1084600F037FD21460246284688
:10118C00FFF7C9FF284638BDFFF79AFFFAE7F8B515
:10119C0006460D4600248F18BD420CD033683046ED
:1011AC009B6815F8011B9847031E01DB1C44F3E7F1
:1011BC00002C08BF1C462046F8BD70B505460C46F1
:1011CC00084649B100F010FD2B680246214628461E
:1011DC00BDE87040DB68184770BD08B5FFF7EDFF40
:1011EC0008BD03689B68184738B50D210546FFF705
:1011FC00F8FF0A2104462846FFF7F3FF204438BDC8
:10120C0038B50546FFF7D9FF04462846FFF7ECFF33
:10121C00204438BD0023012A98BF0A2230B58BB078
:10122C000C468DF8243009A92546B4FBF2F404FBD6
:10123C001253DBB2092B94BF30333733DBB2AA42E3
:10124C0001F8013DF0D9FFF7B8FF0BB030BD00231A
:10125C0040681A461946FFF739BC0000014B024A98
:10126C001A60704724010020C01E0A08024B1A683D
:10127C00024B1A60704700BF1400002028010020A8
:10128C000021FFF7E7BB00000022014B9A6070477A
:10129C002C010020014B1860704700BF1800002083
:1012AC0008B5134B43B100F089F903681B699847E3
:1012BC00002801DDAFF300800E4B43B100F02EFA95
:1012CC0003681B699847002801DDAFF300800A4BC7
:1012DC000BB1AFF30080094B43B100F0A9F90368DF
:1012EC001B699847002801DDAFF3008008BD00BFE3
:1012FC0000000000000000000000000000000000E2
:10130C0008B5FFF7CDFFFFF7B5FA014B186008BD24
:10131C00A80500200548064A08B5121A054900F030
:10132C001FFC054B054A1A6008BD00BF0040024077
:10133C0004400240E0200A08004002401E1C279A8C
:10134C00002307B51A466FF077010093FFF794FB63
:10135C0003B05DF804FB000007B543880A2B08D0E6
:10136C00502B0BD1094B1B684BB103B05DF804EB50
:10137C001847FFF7E5FF03B05DF804FB00231A469E
:10138C006FF077010093FFF777FBF4E74001002043
:10139C00002110B51148FFF7F9FB114B1A68114BDE
:1013AC009A420CBF012200220F4B1A7001D0FFF79A
:1013BC00B1FFFFF757FA044600F0E8FB0B4B13B1F3
:1013CC002046AFF3008000210848FFF7BFFBBDE8C3
:1013DC00104000210648FFF745BB00BFA1120A08C8
:1013EC00004002401E1C279A3C0100200000000017
:1013FC0065130A08704710B50446182100F094FADA
:10140C00204610BDF8B50E46002400F10807051D56
:10141C0017F8011D0A223046FFF7FCFEAF420444C8
:10142C0001D12046F8BD002CF2D02E213046FFF71A
:10143C00D8FE0444ECE7000010B50446044B11221E
:10144C00002140F8043B00F099FB204610BD00BF82
:10145C00E81E0A080346074A10B543F8042B01F1AD
:10146C00100251F8044B914243F8044BF9D10A781D
:10147C001A7010BDE81E0A08024AC0E900210422B5
:10148C0002757047E81E0A0810B59DF8084044EA3A
:10149C000324042344EA024444EA016444600375CF
:1014AC0010BD000037B5044D05609DF8185000952F
:1014BC00FFF7EAFF03B030BDE81E0A0813B5CB787E
:1014CC0000938B784A780978FFF7DEFF02B010BDE5
:1014DC0010B50446024B0360FFF7F0FF204610BD29
:1014EC00E81E0A08417470477047704708B5002120
:1014FC00007CFFF777FA40EAE07008BD08B50121DF
:10150C00007CFFF76FFA40EAE07008BD08B5007C7C
:10151C00FFF760FA20EAE07008BD08B5007CFFF721
:10152C0051FA20EAE07008BD38B50446007C0D463F
:10153C00FFF750FA002801DC607C28B12946207C9A
:10154C00FFF758FA20EAE07038BD007CFFF75ABA72
:10155C0010B50446142100F0E7F9204610BD704781
:10156C0010B54FF47A73044608460021C4E9011300
:10157C00044B20742360012311466374FFF712FAA5
:10158C00204610BDFC1E0A080022007CFFF712BA90
:10159C0010B504461422002100F0F0FA054B204649
:1015AC006360054BE36040F20113238181232382A6
:1015BC0010BD00BF740100207502002030B50E4D27
:1015CC0087B001A8FFF7E4FF2978BFF35B8F11F018
:1015DC0001040ED12846FEF760FD50B1214601AA48
:1015EC000648FFF7BDFF2846FEF75CFD044800F0F7
:1015FC00B1FA024807B030BD440100204C01002074
:10160C00F5140A0810B504461422002100F0B6FAAD
:10161C00054B20466360054BE36040F201132381C8
:10162C008123238210BD00BFF6020020F7030020A7
:10163C0010B50E4C86B001A8FFF7E4FF2378BFF37A
:10164C005B8FDB070ED42046FEF727FD50B101213E
:10165C0001AA0748FFF784FF2046FEF723FD054843
:10166C0000F078FA024806B010BD00BF4801002017
:10167C00600100206B150A08704741747047704771
:10168C0008B5007CFFF746F920EAE07008BD08B504
:10169C00007CFFF71FF920EAE07008BD08B5007C5C
:1016AC00FFF728F940EAE07008BD08B5007CFFF7A9
:1016BC0019F940EAE07008BD007CFFF723B970B55A
:1016CC00467C04460D462EB12946207CBDE8704070
:1016DC00FFF7F8B8007CFFF71DF90028F4DC304662
:1016EC0070BD10B50446142100F01EF9204610BD43
:1016FC004FF0000C10B50446084611464FF47A72B0
:10170C00C4E901C2044A20742260012262741A46A0
:10171C00FFF7D0F8204610BD2C1F0A0838B50C4D29
:10172C002978BFF35B8F11F001040FD12846FEF727
:10173C00B4FC58B12146074B074A0848FFF7D8FFBD
:10174C002846FEF7AFFC064800F004FA034838BD03
:10175C0078040020000500207C0400208405002073
:10176C008B160A08002240681146FFF7A7B9F0B59E
:10177C00154689B011220E460446002103A800F03C
:10178C00FDF9284600F030FA002781B2736828462C
:10179C00009703AAFFF746F930B139462046FFF708
:1017AC006BFE204609B0F0BD204603A9FFF752FEA0
:1017BC00F7E7002240681146FFF7A0B90022406805
:1017CC001146FFF7ABB900224068FFF79FB9002222
:1017DC00406881F00101FFF789B9002340681A467F
:1017EC001946FFF77BB9002240681146FFF756B93E
:1017FC00002202214068FFF759B9002340681A46BD
:10180C00FFF744B90422024B5A60024A1A6070472F
:10181C00980500205C1F0A08002340681A46FFF751
:10182C0035B9002202214068FFF740B90022406818
:10183C001146FFF733B9002240681146FFF73EB955
:10184C00002340681A461946FFF740B90023406848
:10185C001A461946FFF742B900214068FFF766B9EE
:10186C0000214068FFF76AB90022406881F001014D
:10187C00FFF73CB900224068FFF748B900224068E6
:10188C001146FFF74BB9002240681146FFF736B9F5
:10189C0070B515468EB0044608A8FFF7CDFD112291
:1018AC00002103A800F06AF90026284600F09CF9F4
:1018BC000A4B009681B25B68284603AAFFF7B2F880
:1018CC0030B131462046FFF7D7FD20460EB070BD33
:1018DC00204603A9FFF7BEFDF7E700BF98050020DF
:1018EC00034A044B042814BF10461846704700BF27
:1018FC00A005002098050020024B034A1A60002224
:10190C005A607047A0050020981F0A08002307B5ED
:10191C001A46194600930348FFF7C4FD03B05DF85F
:10192C0004FB00BFAC050020FEF7B3BB014900F07F
:10193C00FBB800BFE41F0A087FB500241023CDE9D3
:10194C000234036815469E6912686B4600948DF844
:10195C000440B0479DF8043003F00603062B09BF82
:10196C0001202046009B2B6004B070BD0098904273
:10197C0014BF01200620704710B50446024B0360CB
:10198C0000F0CFF8204610BD24200A0810B50446FC
:10199C00FFF7F2FF20460821FFF7C6FF204610BDD7
:1019AC002DE9F041DDF818801F46DDE90834984533
:1019BC000646154607D1079900F0B6F818B16571BF
:1019CC000020BDE8F0813946304600F0ADF8002823
:1019DC00F6D00123C4F800802571A371F0E738B567
:1019EC0015461C4600F0A0F820B10823E36006233E
:1019FC002560237138BD2DE9F04105460C4616468D
:101A0C001F4600F091F848B9032F07D823683246D7
:101A1C0029462046BDE8F0415B691847BDE8F081D6
:101A2C0010B50446024B0360FFF7A6FF204610BD1D
:101A3C0084200A0810B50446FFF7F2FF20460C215B
:101A4C00FFF772FF204610BD2DE9F041DDF818803C
:101A5C00064690450F4615461C460BD0B0682A46E4
:101A6C000368CDF818801E6A39462346B446BDE893
:101A7C00F0416047194600F057F80028EED00620D8
:101A8C00BDE8F0812DE9F14F0D46DDE90A4BDDE9AA
:101A9C000CA6194681461746984600F045F890B1B9
:101AAC00002D3460377109DB2C44A2450CBF062491
:101ABC000124B471002001B0BDE8F08F0235F9D1DA
:101ACC000123B371F6E7544506D15946484600F058
:101ADC002BF808B17771EDE7D9F808003A4603689E
:101AEC00CDE90CA6CDE90A4BDC6929464346A44650
:101AFC0001B0BDE8F04F60472DE9F04107460C46B8
:101B0C0015461E46FFF76BFF48B9B8682A460368AE
:101B1C0021469F693346BC46BDE8F0416047BDE8AD
:101B2C00F081704700207047814208B50ED04068A4
:101B3C0003782A2B0CD049680B782A2B08BF01316B
:101B4C0000F048F8B0FA80F0400908BD0120FCE72D
:101B5C000020FAE7002301461A46184600F04CB85C
:101B6C000A44914200F1FF3300D1704710B511F8CF
:101B7C00014B914203F8014FF9D110BD03460244C9
:101B8C00934200D1704703F8011BF9E738B50D4BB0
:101B9C0004461D68AB6B7BB91820FEF7DFFF0A4AC1
:101BAC000A4BA863C0E90023094B012283600B2375
:101BBC0083810023C0E904230022AB6B1C615A61B2
:101BCC0038BD00BF180000200E33CDAB34126DE6CB
:101BDC00ECDE050010F8012B11F8013B012A28BF9F
:101BEC009A42F7D0D01A7047034613F8012B002AFB
:101BFC00FBD1181A013870472DE9F843DFF8BC8087
:101C0C000646D8F800001F460D46914600F058F8DD
:101C1C00264B1C6834B9264C1C60264B13B11B6830
:101C2C00C4F8883063681F2B07DDD8F8000000F07B
:101C3C0049F84FF0FF30BDE8F8835EB3D4F8880064
:101C4C0088B91D4B23B9D8F8000000F03AF8F0E73A
:101C5C004FF48470FEF782FF0028F4D00023C0E913
:101C6C004033C4F8880001226368022E40F82390A8
:101C7C0002FA03F200EB8301D0F8003143EA0203CD
:101C8C00C0F80031C1F8807002BFD0F804311A439B
:101C9C00C0F804216368D8F800005A1C0233626053
:101CAC0044F8235000F00EF80020C4E75006002042
:101CBC00C405002000000000690B0A087C0000200D
:101CCC0070477047704700001D000A085D000A0845
:101CDC0085000A0889000A08000000005265636547
:101CEC00697665642061206D657373616765206F2B
:101CFC006E20746F7069633A20002E204D657373EB
:101D0C006167653A2000436F6E6E656374696E6738
:101D1C0020746F20576946692E2E2E00436F6E6E0D
:101D2C00656374656420746F205769466900436F5E
:101D3C006E6E656374656420746F204D515454202D
:101D4C0042726F6B657200746573742F746F706977
:101D5C0063004661696C656420746F20636F6E6EFE
:101D6C0065637420746F204D5154542042726F6B14
:101D7C00657200636F6E6E656374656400636F6E8D
:101D8C006E656374696F6E206661696C6564007062
:101D9C00686F746F6E36305F697169796A76616AE3
:101DAC00610076696C6C614E6F76610065636532BB
:101DBC003433310053756363657373004661696C2A
:101DCC006564207573696E6720495041646472655F
:101DDC00737300436F6E6E656374696E672E2E2E7F
:101DEC00004572726F7220696E20215F636C6965A9
:101DFC006E742E617661696C61626C652829004590
:101E0C0072726F7220696E206973436F6E6E6563B8
:101E1C0074656428290000044D5154540400064D87
:101E2C00514973647003776972696E67005443504B
:101E3C00436C69656E7420736F636B65743D2578B4
:101E4C00000000000000000000000000110C0A0857
:101E5C00390C0A085B100A08470C0A08150C0A080A
:101E6C000000000000000000000000000000000066
:101E7C004D0C0A08810C0A08CD0B0A08E70B0A085E
:101E8C005D0E0A08E30C0A08B50C0A080F0C0A08C8
:101E9C007D0D0A0861100A08170D0A08D10E0A08F0
:101EAC007F0F0A08370F0A08F70B0A08450F0A08B4
:101EBC00950C0A086170700025592D256D2D25642F
:101ECC005425483A254D3A2553257A00617363749D
:101EDC00696D6500000000000000000011140A0884
:101EEC0001140A0803140A08000000000000000096
:101EFC00F7140A085D150A0835150A089B110A081B
:101F0C0027150A08F9140A0809150A0857150A08AA
:101F1C0019150A08F1140A0800000000000000005E
:101F2C0085160A08EF160A08CB160A089B110A0830
:101F3C009B160A08B7160A08A9160A08C5160A0835
:101F4C0087160A088D160A08000000000000000021
:101F5C0007180A08FD170A08F3170A0871170A0868
:101F6C005B120A08E7170A0865180A086D180A08B0
:101F7C00DB170A08D3170A08C9170A08BF170A087B
:101F8C007B170A08000000000000000025180A0852
:101F9C002F180A0839180A0843180A084D180A0895
:101FAC0059180A0865180A086D180A0875180A08DD
:101FBC0081180A0889180A0893180A089D180A0833
:101FCC00537431395F53705F6D616B655F7368611A
:101FDC007265645F7461670024200A08CC1F0A08CC
:101FEC0084200A08F81F0A08A8200A084E31305F1E
:101FFC005F637878616269763131375F5F636C61FA
:10200C0073735F747970655F696E666F450000006D
:10201C0000000000EC1F0A0885190A0899190A0823
:10202C00311B0A08311B0A08031A0A0845190A0849
:10203C00EB190A08AD190A0879190A0884200A084C
:10204C0054200A08EC1F0A084E31305F5F63787821
:10205C00616269763132305F5F73695F636C6173A3
:10206C00735F747970655F696E666F450000000080
:10207C000000000048200A082D1A0A08411A0A0814
:10208C00311B0A08311B0A08031A0A0845190A08E9
:10209C00051B0A08911A0A08551A0A0824200A086E
:1020AC00B0200A08537439747970655F696E666F75
:1020BC0000000000F5010A08A90B0A0869120A08B9
:1020CC0079120A0895120A0811180A0805190A0843
:0420DC0019190A08BC
:0420E00000000000FC
:1020E4009B1D0A08AE1D0A085B0798683DDA0000CC
:1020F400B81D0A08D81E0A081C00002000000000B1
:1021040000000000000000000000000000000000CB
:1021140000000000000000000000000000000000BB
:1021240000000000000000000000000000000000AB
:10213400000000000000000000000000000000009B
:10214400000000000000000000000000000000008B
:102154000000000000000000000000005506002000
:10216400FFFFFFFF00000102030405060708090A38
:102174000B0C0D0E0F101112131415161718191A33
:082184001B1C1D1E1F2028007A
:04218C00785634123B
:04000005080A001CC9
:00000001FF
