:02000004080AE8
:1000000000000A081C220A0800000600060005017C
:080010000402FE0800000000DC
:04001800181D0A089D
:10001C0009480A4908B5884205D0094A824202D0EB
:10002C00121A01F0BFFD0748074A0021121A01F00D
:10003C00C7FD064808BD00BF0000002074210A0857
:10004C0080000020800000205D0600205D0600205E
:10005C0070B501F0BFF90025054E064CA41BA40891
:10006C00A54200D170BD56F8043B98470135F7E71F
:10007C0048210A0868210A0800F042B808B500F0C7
:10008C00B1F8BDE8084001F05DB900F089BD00F0A1
:10009C0087BD00F08DBD00F08BBD0078B0FA80F00C
:1000AC00400970470123037070470000B0B502F19E
:1000BC00080323F0070300AFADEB030D05466846BC
:1000CC00144601F06FFD00230DF8043001F098FA8E
:1000DC00094901F0A4F801F093FA294601F09FF8C0
:1000EC0001F08EFA054901F09AF801F089FA694697
:1000FC0001F0A8F8BD46B0BD2C1D0A084A1D0A081F
:10010C0030B587B001F07CFA4FF4165101F05EFA6D
:10011C00254D264C00226868114600F0E1FC48B1E0
:10012C004FF47A7001F0CEF801F06AFA214601F032
:10013C0089F8EFE701F064FA1D4901F083F81D4BD3
:10014C001D4A1E491B68126809681D4800F09CFB7B
:10015C00F0B101F055FA1B4901F074F81A4918482E
:10016C0000F0CFF91949684601F0D4F9184A002378
:10017C0069461288174800F01DFE78B101F040FA6C
:10018C00154901F05FF8134801F050F807B030BD85
:10019C0001F036FA114901F055F8E3E701F030FAB5
:1001AC000F4901F04FF8F1E798050020561D0A0899
:1001BC006C1D0A0804000020100000200000002024
:1001CC00980000207E1D0A08971D0A080A000020CE
:1001DC0008000020F8000020C31D0A08A21D0A0810
:1001EC00D11D0A0870470000002313B5094A0A4CB8
:1001FC0000932146094B1288094800F05BF8214610
:10020C00084801F087F9084802B0BDE8104000F03A
:10021C002BBF00BF080000200A000020B9000A080C
:10022C009800002080000020F800002091F85C303D
:10023C0010B50446016013B1886D00F04DFB2046EB
:10024C0010BD10B50368044693F85C2012B1986D8C
:10025C0000F04AFB204610BDF8B51F469DF824302F
:10026C0004460D46164623B101235830037100F0A5
:10027C002BFB089B23630023636306B1A66425B1A3
:10028C00294604F1380000F093FF069BE0692365D2
:10029C00079BA4F84C70FF2BB8BFFF23A4F8543075
:1002AC0008B1FFF7F8FEB4F85400FFF7F0FEE06178
:1002BC00F8BD00002DE9FF4104460025984617467D
:1002CC000E4600F0D1FE0D49E56104F1380000F056
:1002DC005CFF9DF82830FF22CDE902830F232046D6
:1002EC00CDE9003229463B463246A56484F85C5081
:1002FC00FFF7B2FF204604B0BDE8F081771E0A0874
:10030C0010B50446204600F0C5FD0028FAD0204662
:10031C0000F003FDC0B210BD2DE9F0470546C469DD
:10032C0089460127FFF7ECFF4FF0000820703C4690
:10033C00EB6993F800A00AF0F00A2846FFF7E0FFFB
:10034C002646EB690134985500F07F0303FB0788C0
:10035C000306A4B21FFA88F84FEAC717EDD4631E40
:10036C00BAF1300F89F8003024D12846EF69FFF735
:10037C00C7FF38552846EF69FFF7C2FFF41C023659
:10038C00B6B2B8550226A4B2B6B2B1462746C1459C
:10039C0012D22846FFF7B4FFB5F8543009F1010921
:1003AC00BB4288BFEB691FFA89F988BFD855013762
:1003BC00BFB2ECE70026E7E7A8EB0600B0452CBF80
:1003CC0006460026B5F854003444A4B2A0422CBF13
:1003DC0020460020BDE8F087F7B58C461E461D462A
:1003EC0007460023AE4605F07F01BEF17F0F02A841
:1003FC0088BF41F080015C1CBEF17F0F03444FEAC3
:10040C00D515E4B203F8041C10D8C4F10403D118B8
:10041C0002F803C0C4F10503134401A8053293424A
:10042C0006D010F8015B03F8015BF8E72346D9E727
:10043C00721C2244384600F0F2FB054600F03CFAF0
:10044C00013478623444A8B2231A5842584103B09C
:10045C00F0BD0233F0B5044698B20023CD5C4DB12B
:10046C00B4F854605F1C864204D9461C15543B46B4
:10047C00B0B2F3E799B2441A2244091202F8021CF2
:10048C0002F8013CF0BD38B5044600F094FD00289C
:10049C0014BF0125002502D1204600F035FD284669
:1004AC0038BDF7B504460F461646FFF7ECFF054678
:1004BC0010B3214601A8FFF7B9FE238C01339BB280
:1004CC00EBB12384238CE2691B125371E369228CF8
:1004DC0039469A71E26907232046FFF7BAFFE369B0
:1004EC0082211E54043883B2E2692046FFF774FF60
:1004FC00054601A8FFF7A5FE284603B0F0BD012371
:10050C00DFE70022FFF7CDBF38B5054642B90368D7
:10051C009B6898470446284600F088FE204438BD66
:10052C00D2B200F099FEF5E72DE9F04F93B01E46DC
:10053C009DF88030044689461746DDF87080039399
:10054C00FFF7A1FF0546002840F07D81214605A854
:10055C00FFF76CFEA16C002940F02D812B46204644
:10056C00B4F84C20A16B00F097FD834628BBA06C1F
:10057C00837842780178C078009006A800F0B4FF28
:10058C00B44B0DF1340C0DF11C0E0C93BEE80F00A6
:10059C00ACE80F00DEF8003020468CF80030B4F8E0
:1005AC004C205B460CA900F005FC002800F00E81E5
:1005BC0001F026F8A84900F045FE01F021F8A74902
:1005CC0000F040FE01F01CF8A54900F03BFE01F0E4
:1005DC0017F8A16C8246B1FA81F10A22490900F0A0
:1005EC003BFE504600F022FE01F00AF8A36C0A22F2
:1005FC001978FFF789FF01F003F8A36C0A225978E8
:10060C00FFF782FF00F0FCFFA36C0A229978FFF73A
:10061C007BFF00F0F5FFA36C0A22D978FFF774FF7B
:10062C0000F0EEFFA16B00F00DFE00F0E9FFA16BF6
:10063C0000F008FE00F0E4FF8A4900F003FE00F031
:10064C00DFFF82460A22B4F84C1000F005FE50463B
:10065C0000F0ECFD00F0D4FF834900F0F3FD00F056
:10066C00CFFF824900F0EEFD00F0CAFFBBF1000F96
:10067C00824680F2AF802D2100F0D5FDCBF1000138
:10068C000A22504600F0E8FD504600F0CFFD00F085
:10069C00B7FF774900F0D6FDBBF1000F00F0CD801D
:1006AC00012323849DF88430E269042B40F094806C
:1006BC00704B186899889B79ADF834108DF83630EA
:1006CC000C90C2F805009DF83630BDF83410D3728A
:1006DC000C23A2F80910B8F1000F00F092809DF8DD
:1006EC0078009DF87420400140EAC20040F00600FA
:1006FC00C0B2039A0AB900F0FD0027B1002E40F0F9
:10070C00828040F08000E269D054226DE169581C6F
:10071C0012120A54E169206D9A1C8854033349461D
:10072C002046E269FFF795FE0346B8F1000F0BD0A7
:10073C004146E2692046FFF78CFEE26903461F99A9
:10074C002046FFF786FE034667B139462046E2692C
:10075C00FFF77FFE03462EB131462046E269FFF7D4
:10076C0078FE0346053B1021E2699BB22046FFF759
:10077C0033FE00F0A1F84FF47A76C4E90900204664
:10078C0000F088FB002841D100F096F8A36AC01A4B
:10079C00236D73439842F2D9204600F0B5FB00F06C
:1007AC002FFF354900F04EFD05A8FFF74AFD2846FE
:1007BC0013B0BDE8F08F0CA800F0ACFE2B46204621
:1007CC00B4F84C200CA900F0F5FACEE600F018FFB6
:1007DC002A49F0E6594653E7294B0DF1300C1868BD
:1007EC0059681B7AACE803008CF800300CAB03CBD7
:1007FC00C2F80500C2F809109CF8003053730E23A0
:10080C0069E7022075E740F0C0007CE720460CA9A0
:10081C00FFF782FD042810D1E369DD7835B900F0CB
:10082C004BF884F82C50A0620125BDE700F0E8FEDF
:10083C00E3690A22D978FFF767FE204600F064FBD3
:10084C0005A8FFF7FEFC00F0DBFE0E4900F0FAFCF9
:10085C000025ACE7701F0A080C1E0A082B1E0A089C
:10086C004A1E0A084E1E0A08541E0A08621E0A086E
:10087C00751E0A08AD1E0A08781E0A08141E0A08FE
:10088C00B41E0A08961E0A0810B54FF0040C012479
:10089C0086B0CDE9044C0024CDE90244CDE90044F6
:1008AC00FFF742FE06B010BD08B5024B1B685B6833
:1008BC00019308BD9C01060808B5024B1B685B69D7
:1008CC00019308BD9C01060808B5024B1B681B6B05
:1008DC00019308BDD001060808B5024B1B689B6B41
:1008EC00019308BDD001060808B5024B1B681B6CB0
:1008FC00019308BDD001060808B5024B1B689B6923
:10090C00019308BDC401060808B5024B1B685B6A5D
:10091C00019308BDC401060808B5024B1B689B6A0D
:10092C00019308BDC401060808B5024B1B68DB6ABD
:10093C00019308BDC401060808B5024B1B681B6B6C
:10094C00019308BDC401060808B5024B1B685B6B1C
:10095C00019308BDC401060808B5024B1B681B6C4B
:10096C00019308BDC401060808B5024B1B681B683F
:10097C00019308BDBC01060808B5024B1B685B68F7
:10098C00019308BDBC01060808B5024B1B689B68A7
:10099C00019308BDBC01060808B5024B1B68DB6857
:1009AC00019308BDBC01060808B5024B1B681B6906
:1009BC00019308BDBC01060808B5024B1B681B6AF5
:1009CC00019308BDBC01060808B5024B1B681B6BE4
:1009DC00019308BDBC01060808B5024B1B685B6C93
:1009EC00019308BDBC01060808B5024B1B681B68C7
:1009FC00019308BDD801060808B5024B1B685B685B
:100A0C00019308BDD801060808B5024B1B681B6989
:100A1C00019308BDD801060808B5024B1B685B6939
:100A2C00019308BDD801060808B5024B1B689B69E9
:100A3C00019308BDD801060808B5024B1B68DB6999
:100A4C00019308BDD801060808B5024B1B681B6A48
:100A5C00019308BDD801060808B5024B1B685B6CF6
:100A6C00019308BDC001060808B5024B1B689B6CBE
:100A7C00019308BDC001060808B5024B1B681B6D2D
:100A8C00019308BDA801020808B5024B1B685B68FE
:100A9C00019308BDA401060808B5024B1B685B69ED
:100AAC00019308BDA401060808B5034B1B68D3F8D5
:100ABC009030019308BD0000A401060808B5034B53
:100ACC001B68D3F89C30019308BD0000A4010608F4
:100ADC0008B5024B1B685B68019308BDC80106088A
:100AEC0008B5024B1B689B68019308BDC80106083A
:100AFC0008B5024B1B68DB68019308BDC8010608EA
:100B0C0008B5024B1B681B69019308BDC801060898
:100B1C0008B5024B1B685B69019308BDC801060848
:100B2C0008B5024B1B689B69019308BDC8010608F8
:100B3C0008B5024B1B68DB69019308BDC8010608A8
:100B4C0008B5024B1B681B6A019308BDC801060857
:100B5C0008B5024B1B681B6B019308BDC801060846
:100B6C0008B5024B1B685B6B019308BDC8010608F6
:100B7C0008B5024B1B681B6C019308BDC801060825
:100B8C0008B5024B1B685B6C019308BDC8010608D5
:100B9C0008B5024B1B68DB6B019308BDCC01060842
:100BAC0008B5024B1B681B68019308BDA001060821
:100BBC0008B5024B1B685B68019308BDA0010608D1
:100BCC0008B5024B1B689B68019308BDA001060881
:100BDC0008B5024B1B685B6C019308BDA0010608AD
:100BEC0002220020044B1A60044B054A18609880BE
:100BFC0098719A60FFF748BF200100201401002073
:100C0C000000FFFF13B503688DF80710DC6B0122A1
:100C1C0047F230530DF10701A04702B010BD10B4DC
:100C2C000368DC6B47F23053A44610BC604713B525
:100C3C00134602688DF80710D46B0DF107010122E1
:100C4C00A04702B010BD70477047000010B50446B5
:100C5C00064B0846994204F10C0404D000F088FEBF
:100C6C00002808BF0024204610BD00BFF41E0A084F
:100C7C0010B50446AC2100F079FE204610BDFFF7FC
:100C8C0008BA000038B50B4B8469054603607CB18B
:100C9C006368013B63605BB9236820469B68984797
:100CAC00A368013BA3601BB923682046DB68984707
:100CBC00284638BD041F0A0810B50446FFF7E2FFAA
:100CCC0020461C2100F052FE204610BD70B5044693
:100CDC0006464D69044B8C3544F8043B0FCD0FC4CC
:100CEC002B683046237070BD701F0A0810B543691D
:100CFC000446B3F88620B3F884309A4205D0636971
:100D0C00B3F884201344187910BD03681B69984705
:100D1C000028F4D14FF0FF30F6E710B543690446D4
:100D2C00B3F88620B3F884309A4208D06369B3F8DC
:100D3C008420511CA3F884101344187910BD036847
:100D4C001B6998470028F1D14FF0FF30F6E7F8B552
:100D5C0043691746B3F88620B3F8843005469A42A7
:100D6C000E4616D069693046B1F88430B1F8864029
:100D7C00E41ABC4228BF3C4604332246194400F016
:100D8C0011FF6A69B2F884302344A2F884302046FB
:100D9C00F8BD03681B6998470028E3D14FF0FF3476
:100DAC00F5E700234269A2F884304269A2F8863044
:100DBC00704700002DE9F0431F4603688BB0DB6AD7
:100DCC0005460C4616469847384600F0ABFD0368BE
:100DDC00DB689847002854D03346062201210220B4
:100DEC000097D5F81480FFF7CFFD2023C8F800003A
:100DFC004FF00008CDE902386B6901201B682349CC
:100E0C000193234B02AA00934346FFF735FE6B690F
:100E1C001868FFF7B1FD002833D02846FFF7C1FF53
:100E2C000223ADF80830E37976BA8DF80C30A3794B
:100E3C004FF4FA508DF80D306379ADF80A608DF8E7
:100E4C000E3014F8043F8DF80F30FFF705FE6B6978
:100E5C0006461022186802A9FFF79EFD814630460F
:100E6C00FFF7FAFD0FCC6E698C360FC62368337012
:100E7C002F61B9F1000F07D02B682846DB6A984721
:100E8C0040460BB0BDE8F0830120FAE7BD1E0A080E
:100E9C00C41E0A0838B542690446B2F886302BB134
:100EAC00B2F884209A4201D1FFF77BFF206900F051
:100EBC0039FD0368DB689847F8B163691868FFF778
:100ECC005BFDD0B16069B0F886107F2915D8051D7F
:100EDC00C1F18002002300682944FFF765FD00285A
:100EEC000BDD6369B3F886200AB9A3F88420636923
:100EFC00B3F886201044A3F886006369B3F8860023
:100F0C00B3F88430C01A38BD38B543690446186844
:100F1C00FFF732FD18B163691868FFF74DFD65697D
:100F2C00FFF752FD28606069112200218C3000F01F
:100F3C0047FE2046BDE83840FFF733BF10B5436984
:100F4C0004461868FFF718FD08B9002010BD206989
:100F5C0000F0E8FC0368DB6898470028F5D063696B
:100F6C001868FFF701FDB0FA80F04009EEE708B50C
:100F7C00FFF7E4FF003818BF012008BD2DE9F3414D
:100F8C000027476004460D4616469846FFF7D6FFE5
:100F9C0070B1CDE9008760693B463246294600684E
:100FAC00FFF71AFD002800DA606002B0BDE8F0819E
:100FBC004FF0FF30F8E770B50546FFF7BFFFE8B913
:100FCC006B69B3F88610B3F88420914216D1186877
:100FDC00FFF7D2FC08B9002070BD6B691868FFF7E9
:100FEC00C3FC01280446F6D12B6828461B69984798
:100FFC0030B92B682846DB6A9847ECE70120EBE711
:10100C002046E9E7002310B504460160C0F884309F
:10101C00883000F033FA204610BD0000F8B54FF4CC
:10102C007A720023C0E901320D4A03610260436108
:10103C000446AC200E46FFF728F8051E05F10C07F8
:10104C0008D00123C5E90133064B314638462B60E5
:10105C00FFF7D8FF2046C4E90575FFF7A2FEF8BDDF
:10106C00041F0A08E01E0A0810B50446FFF7ACFC82
:10107C0001462046FFF7D2FF204610BD10B50446AE
:10108C000068FFF779FC10B12068FFF795FC20464B
:10109C0010BD0C30FFF7F2BF2DE9F0431F4603687B
:1010AC008FB0DB6A06460D4690469847134800F011
:1010BC00E4FBF0B102A800F0E1F9284600F0B6FD1F
:1010CC00002481B23B462846009403AAFFF7CCFCCF
:1010DC0090B9336809ADD3F82090094B03AC089351
:1010EC000FCC0FC5236842462B7030463B4608A9EF
:1010FC00C8470FB0BDE8F0832046FAE7A0050020F2
:10110C00701F0A0810B50446006808B1FFF750FDBF
:10111C000023C4E90133236010BD38B504460D46E5
:10112C0000680131FFF74CFD10B1C4E90005012046
:10113C0038BD10B50368044623B143688B4201D314
:10114C00012010BD2046FFF7E8FF0028F9D0A36866
:10115C00002BF5D122681370F2E770B50E461146DC
:10116C0004461546FFF7E5FF20B92046FFF7CAFFF6
:10117C00204670BD2A4631462068A56000F012FD5D
:10118C0000212268A368D154F2E738B50023044645
:10119C000D46C0E900338360037339B1084600F093
:1011AC0045FD294602462046FFF7D7FF204638BDAD
:1011BC0038B505460C4649B1084600F037FD2146C6
:1011CC0002462846FFF7C9FF284638BDFFF79AFFAD
:1011DC00FAE7F8B506460D4600248F18BD420CD030
:1011EC00336830469B6815F8011B9847031E01DBDA
:1011FC001C44F3E7002C08BF1C462046F8BD70B514
:10120C0005460C46084649B100F010FD2B68024615
:10121C0021462846BDE87040DB68184770BD08B50C
:10122C00FFF7EDFF08BD03689B68184738B50D2123
:10123C000546FFF7F8FF0A2104462846FFF7F3FF9F
:10124C00204438BD38B50546FFF7D9FF044628467B
:10125C00FFF7ECFF204438BD0023012A98BF0A2277
:10126C0030B58BB00C468DF8243009A92546B4FB5B
:10127C00F2F404FB1253DBB2092B94BF3033373337
:10128C00DBB2AA4201F8013DF0D9FFF7B8FF0BB071
:10129C0030BD002340681A461946FFF739BC0000E0
:1012AC00014B024A1A60704724010020481F0A08AB
:1012BC00024B1A68024B1A60704700BF14000020E2
:1012CC00280100200021FFF7E7BB00000022014BA2
:1012DC009A6070472C010020014B1860704700BFCA
:1012EC001800002008B5134B43B100F089F90368CE
:1012FC001B699847002801DDAFF300800E4B43B10A
:10130C0000F02EFA03681B699847002801DDAFF343
:10131C0000800A4B0BB1AFF30080094B43B100F0D6
:10132C00A9F903681B699847002801DDAFF3008019
:10133C0008BD00BF0000000000000000000000001D
:10134C000000000008B5FFF7CDFFFFF7B5FA014B21
:10135C00186008BDA80500200548064A08B5121AF1
:10136C00054900F01FFC054B054A1A6008BD00BF7B
:10137C00004002400440024070210A080040024034
:10138C001E1C279A002307B51A466FF077010093AD
:10139C00FFF794FB03B05DF804FB000007B543882E
:1013AC000A2B08D0502B0BD1094B1B684BB103B047
:1013BC005DF804EB1847FFF7E5FF03B05DF804FB9D
:1013CC0000231A466FF077010093FFF777FBF4E7E1
:1013DC0040010020002110B51148FFF7F9FB114B1B
:1013EC001A68114B9A420CBF012200220F4B1A7043
:1013FC0001D0FFF7B1FFFFF757FA044600F0E8FB06
:10140C000B4B13B12046AFF3008000210848FFF7C7
:10141C00BFFBBDE8104000210648FFF745BB00BFED
:10142C00E5120A08004002401E1C279A3C010020CD
:10143C0000000000A9130A08704710B504461821D3
:10144C0000F094FA204610BDF8B50E46002400F1C9
:10145C000807051D17F8011D0A223046FFF7FCFE90
:10146C00AF42044401D12046F8BD002CF2D02E210D
:10147C003046FFF7D8FE0444ECE7000010B50446F4
:10148C00044B1122002140F8043B00F099FB20464C
:10149C0010BD00BF701F0A080346074A10B543F879
:1014AC00042B01F1100251F8044B914243F8044B08
:1014BC00F9D10A781A7010BD701F0A08024AC0E9E7
:1014CC000021042202757047701F0A0810B59DF8A0
:1014DC00084044EA0324042344EA024444EA016435
:1014EC004460037510BD000037B5044D05609DF8D0
:1014FC0018500095FFF7EAFF03B030BD701F0A08C3
:10150C0013B5CB7800938B784A780978FFF7DEFF18
:10151C0002B010BD10B50446024B0360FFF7F0FF9C
:10152C00204610BD701F0A08417470477047704701
:10153C0008B50021007CFFF777FA40EAE07008BD9F
:10154C0008B50121007CFFF76FFA40EAE07008BD96
:10155C0008B5007CFFF760FA20EAE07008BD08B51A
:10156C00007CFFF751FA20EAE07008BD38B504465C
:10157C00007C0D46FFF750FA002801DC607C28B196
:10158C002946207CFFF758FA20EAE07038BD007C31
:10159C00FFF75ABA10B50446142100F0E7F92046BB
:1015AC0010BD704710B54FF47A73044608460021FD
:1015BC00C4E90113044B20742360012311466374A6
:1015CC00FFF712FA204610BD841F0A080022007C87
:1015DC00FFF712BA10B504461422002100F0F0FAFD
:1015EC00054B20466360054BE36040F201132381F9
:1015FC008123238210BD00BF7401002075020020DE
:10160C0030B50E4D87B001A8FFF7E4FF2978BFF382
:10161C005B8F11F001040ED12846FEF73EFD50B150
:10162C00214601AA0648FFF7BDFF2846FEF73AFD02
:10163C00044800F0B1FA024807B030BD4401002064
:10164C004C01002039150A0810B50446142200215B
:10165C0000F0B6FA054B20466360054BE36040F2A0
:10166C00011323818123238210BD00BFF6020020C9
:10167C00F703002010B50E4C86B001A8FFF7E4FF6D
:10168C002378BFF35B8FDB070ED42046FEF705FDF6
:10169C0050B1012101AA0748FFF784FF2046FEF74D
:1016AC0001FD054800F078FA024806B010BD00BFF5
:1016BC004801002060010020AF150A0870474174F2
:1016CC007047704708B5007CFFF746F920EAE070D8
:1016DC0008BD08B5007CFFF71FF920EAE07008BDD3
:1016EC0008B5007CFFF728F940EAE07008BD08B5A2
:1016FC00007CFFF719F940EAE07008BD007CFFF7A9
:10170C0023B970B5467C04460D462EB12946207C83
:10171C00BDE87040FFF7F8B8007CFFF71DF9002812
:10172C00F4DC304670BD10B50446142100F01EF9EF
:10173C00204610BD4FF0000C10B50446084611466B
:10174C004FF47A72C4E901C2044A20742260012267
:10175C0062741A46FFF7D0F8204610BDB41F0A0871
:10176C0038B50C4D2978BFF35B8F11F001040FD104
:10177C002846FEF792FC58B12146074B074A084809
:10178C00FFF7D8FF2846FEF78DFC064800F004FA58
:10179C00034838BD78040020000500207C0400209C
:1017AC0084050020CF160A08002240681146FFF776
:1017BC00A7B9F0B5154689B011220E460446002192
:1017CC0003A800F0FDF9284600F030FA002781B29A
:1017DC0073682846009703AAFFF746F930B13946DB
:1017EC002046FFF76BFE204609B0F0BD204603A94A
:1017FC00FFF752FEF7E7002240681146FFF7A0B949
:10180C00002240681146FFF7ABB900224068FFF791
:10181C009FB90022406881F00101FFF789B90023CC
:10182C0040681A461946FFF77BB9002240681146FA
:10183C00FFF756B9002202214068FFF759B900237F
:10184C0040681A46FFF744B90422024B5A60024A18
:10185C001A60704798050020E41F0A0800234068AE
:10186C001A46FFF735B9002202214068FFF740B94C
:10187C00002240681146FFF733B900224068114638
:10188C00FFF73EB9002340681A461946FFF740B9E6
:10189C00002340681A461946FFF742B900214068F8
:1018AC00FFF766B900214068FFF76AB9002240686B
:1018BC0081F00101FFF73CB900224068FFF748B9FD
:1018CC00002240681146FFF74BB9002240681146D0
:1018DC00FFF736B970B515468EB0044608A8FFF769
:1018EC00CDFD1122002103A800F06AF9002628463C
:1018FC0000F09CF90A4B009681B25B68284603AA5B
:10190C00FFF7B2F830B131462046FFF7D7FD20463D
:10191C000EB070BD204603A9FFF7BEFDF7E700BF70
:10192C0098050020034A044B042814BF104618469F
:10193C00704700BFA005002098050020024B034A09
:10194C001A6000225A607047A005002020200A0867
:10195C00002307B51A46194600930348FFF7C4FD48
:10196C0003B05DF804FB00BFAC050020FEF791BB93
:10197C00014900F0FBB800BF6C200A087FB50024B9
:10198C001023CDE90234036815469E6912686B4634
:10199C0000948DF80440B0479DF8043003F0060322
:1019AC00062B09BF01202046009B2B6004B070BDA4
:1019BC000098904214BF01200620704710B50446D1
:1019CC00024B036000F0CFF8204610BDAC200A0893
:1019DC0010B50446FFF7F2FF20460821FFF7C6FFBB
:1019EC00204610BD2DE9F041DDF818801F46DDE9D9
:1019FC00083498450646154607D1079900F0B6F805
:101A0C0018B165710020BDE8F0813946304600F010
:101A1C00ADF80028F6D00123C4F800802571A3711D
:101A2C00F0E738B515461C4600F0A0F820B10823A5
:101A3C00E36006232560237138BD2DE9F04105468E
:101A4C000C4616461F4600F091F848B9032F07D8EC
:101A5C002368324629462046BDE8F0415B691847A9
:101A6C00BDE8F08110B50446024B0360FFF7A6FFFA
:101A7C00204610BD0C210A0810B50446FFF7F2FFF2
:101A8C0020460C21FFF772FF204610BD2DE9F041D6
:101A9C00DDF81880064690450F4615461C460BD0BF
:101AAC00B0682A460368CDF818801E6A394623466A
:101ABC00B446BDE8F0416047194600F057F80028DD
:101ACC00EED00620BDE8F0812DE9F14F0D46DDE9A1
:101ADC000A4BDDE90CA6194681461746984600F0DC
:101AEC0045F890B1002D3460377109DB2C44A245C8
:101AFC000CBF06240124B471002001B0BDE8F08FA6
:101B0C000235F9D10123B371F6E7544506D1594694
:101B1C00484600F02BF808B17771EDE7D9F80800CA
:101B2C003A460368CDE90CA6CDE90A4BDC69294697
:101B3C004346A44601B0BDE8F04F60472DE9F041A3
:101B4C0007460C4615461E46FFF76BFF48B9B868AA
:101B5C002A46036821469F693346BC46BDE8F041DE
:101B6C006047BDE8F081704700207047814208B59E
:101B7C000ED0406803782A2B0CD049680B782A2B9E
:101B8C0008BF013100F048F8B0FA80F0400908BDF8
:101B9C000120FCE70020FAE7002301461A4618460C
:101BAC0000F04CB80A44914200F1FF3300D1704769
:101BBC0010B511F8014B914203F8014FF9D110BD4A
:101BCC0003460244934200D1704703F8011BF9E726
:101BDC0038B50D4B04461D68AB6B7BB91820FEF76E
:101BEC00DFFF0A4A0A4BA863C0E90023094B012214
:101BFC0083600B2383810023C0E904230022AB6B99
:101C0C001C615A6138BD00BF180000200E33CDABEB
:101C1C0034126DE6ECDE050010F8012B11F8013BD7
:101C2C00012A28BF9A42F7D0D01A7047034613F8FE
:101C3C00012B002AFBD1181A013870472DE9F84303
:101C4C00DFF8BC800646D8F800001F460D469146CA
:101C5C0000F058F8264B1C6834B9264C1C60264BF7
:101C6C0013B11B68C4F8883063681F2B07DDD8F8E4
:101C7C00000000F049F84FF0FF30BDE8F8835EB388
:101C8C00D4F8880088B91D4B23B9D8F8000000F0AF
:101C9C003AF8F0E74FF48470FEF782FF0028F4D096
:101CAC000023C0E94033C4F8880001226368022E87
:101CBC0040F8239002FA03F200EB8301D0F80031D4
:101CCC0043EA0203C0F80031C1F8807002BFD0F8BB
:101CDC0004311A43C0F804216368D8F800005A1C78
:101CEC000233626044F8235000F00EF80020C4E781
:101CFC0050060020C405002000000000AD0B0A08AF
:101D0C007C00002070477047704700001D000A08D7
:101D1C005D000A0885000A0889000A080000000016
:101D2C0052656365697665642061206D65737361C6
:101D3C006765206F6E20746F7069633A20002E20E7
:101D4C004D6573736167653A2000436F6E6E656312
:101D5C0074696E6720746F20576946692E2E2E00A9
:101D6C00436F6E6E656374656420746F20576946AB
:101D7C006900436F6E6E656374656420746F204DEB
:101D8C005154542042726F6B657200746573742FDA
:101D9C00746F706963004661696C656420746F20B0
:101DAC00636F6E6E65637420746F204D51545420B4
:101DBC0042726F6B65720054435020636F6E6E6598
:101DCC00637465640054435020636F6E6E65637476
:101DDC00696F6E206661696C65640070686F746F02
:101DEC006E36305F697169796A76616A610076690D
:101DFC006C6C614E6F766100656365323433310013
:101E0C0053756363657373004661696C6564207513
:101E1C0073696E6720495041646472657373000A7C
:101E2C000A20506173736564207461726765742055
:101E3C006164647265737320696E666F200049502B
:101E4C003A00506F72743A00436F6E6E656374693A
:101E5C006E672E2E2E00436F6E6E656374696F6E07
:101E6C00205374617475733A000A0A004572726FDC
:101E7C007220696E20215F636C69656E742E6176C9
:101E8C0061696C61626C652829004572726F722001
:101E9C00696E206973436F6E6E656374656428297F
:101EAC000000044D5154540400064D5149736470A4
:101EBC0003776972696E6700544350436C69656EB1
:101ECC007420736F636B65743D257800000000000F
:101EDC0000000000550C0A087D0C0A089F100A0827
:101EEC008B0C0A08590C0A080000000000000000C6
:101EFC000000000000000000910C0A08C50C0A0844
:101F0C00110C0A082B0C0A08A10E0A08270D0A0846
:101F1C00F90C0A08530C0A08C10D0A08A5100A0886
:101F2C005B0D0A08150F0A08C30F0A087B0F0A0875
:101F3C003B0C0A08890F0A08D90C0A08617070005A
:101F4C0025592D256D2D25645425483A254D3A25C6
:101F5C0053257A0061736374696D6500000000009D
:101F6C000000000055140A0845140A0847140A0812
:101F7C0000000000000000003B150A08A1150A082B
:101F8C0079150A08DF110A086B150A083D150A08AD
:101F9C004D150A089B150A085D150A0835150A081F
:101FAC000000000000000000C9160A0833170A08D8
:101FBC000F170A08DF110A08DF160A08FB160A08B1
:101FCC00ED160A0809170A08CB160A08D1160A08D2
:101FDC0000000000000000004B180A0841180A0815
:101FEC0037180A08B5170A089F120A082B180A088E
:101FFC00A9180A08B1180A081F180A0817180A089D
:10200C000D180A0803180A08BF170A080000000078
:10201C000000000069180A0873180A087D180A08DD
:10202C0087180A0891180A089D180A08A9180A089E
:10203C00B1180A08B9180A08C5180A08CD180A08F0
:10204C00D7180A08E1180A08537431395F53705FC6
:10205C006D616B655F7368617265645F7461670065
:10206C00AC200A0854200A080C210A0880200A080F
:10207C0030210A084E31305F5F637878616269768F
:10208C003131375F5F636C6173735F747970655F57
:10209C00696E666F450000000000000074200A089D
:1020AC00C9190A08DD190A08751B0A08751B0A08E4
:1020BC00471A0A0889190A082F1A0A08F1190A0876
:1020CC00BD190A080C210A08DC200A0874200A0829
:1020DC004E31305F5F637878616269763132305FA0
:1020EC005F73695F636C6173735F747970655F694B
:1020FC006E666F450000000000000000D0200A084A
:10210C00711A0A08851A0A08751B0A08751B0A0831
:10211C00471A0A0889190A08491B0A08D51A0A0815
:10212C00991A0A08AC200A0838210A085374397421
:10213C007970655F696E666F00000000F5010A0832
:10214C00ED0B0A08AD120A08BD120A08D9120A08CA
:10215C0055180A0849190A085D190A0800000000F8
:04216C00000000006F
:04217000000000006B
:10217400E71D0A08FA1D0A085B0798683DDA0000A3
:10218400041E0A08601F0A081C000020000000004A
:10219400000000000000000000000000000000003B
:1021A400000000000000000000000000000000002B
:1021B400000000000000000000000000000000001B
:1021C400000000000000000000000000000000000B
:1021D40000000000000000000000000000000000FB
:1021E4000000000000000000000000005506002070
:1021F400FFFFFFFF00000102030405060708090AA8
:102204000B0C0D0E0F101112131415161718191AA2
:082214001B1C1D1E1F202800E9
:04221C0078563412AA
:04000005080A001CC9
:00000001FF
